{
  "_format": "hh-sol-artifact-1",
  "contractName": "ERC721HashtagRegistry",
  "sourceName": "contracts/ERC721HashtagRegistry.sol",
  "abi": [
    {
      "inputs": [
        {
          "internalType": "contract HashtagAccessControls",
          "name": "_accessControls",
          "type": "address"
        },
        {
          "internalType": "contract HashtagProtocol",
          "name": "_hashtagProtocol",
          "type": "address"
        }
      ],
      "stateMutability": "nonpayable",
      "type": "constructor"
    },
    {
      "anonymous": false,
      "inputs": [
        {
          "indexed": true,
          "internalType": "address",
          "name": "who",
          "type": "address"
        },
        {
          "indexed": false,
          "internalType": "uint256",
          "name": "amount",
          "type": "uint256"
        }
      ],
      "name": "DrawDown",
      "type": "event"
    },
    {
      "anonymous": false,
      "inputs": [
        {
          "indexed": true,
          "internalType": "address",
          "name": "tagger",
          "type": "address"
        },
        {
          "indexed": true,
          "internalType": "address",
          "name": "nftContract",
          "type": "address"
        },
        {
          "indexed": true,
          "internalType": "address",
          "name": "publisher",
          "type": "address"
        },
        {
          "indexed": false,
          "internalType": "uint256",
          "name": "hashtagId",
          "type": "uint256"
        },
        {
          "indexed": false,
          "internalType": "uint256",
          "name": "nftId",
          "type": "uint256"
        },
        {
          "indexed": false,
          "internalType": "uint256",
          "name": "tagId",
          "type": "uint256"
        },
        {
          "indexed": false,
          "internalType": "uint256",
          "name": "tagFee",
          "type": "uint256"
        }
      ],
      "name": "HashtagRegistered",
      "type": "event"
    },
    {
      "inputs": [],
      "name": "accessControls",
      "outputs": [
        {
          "internalType": "contract HashtagAccessControls",
          "name": "",
          "type": "address"
        }
      ],
      "stateMutability": "view",
      "type": "function"
    },
    {
      "inputs": [
        {
          "internalType": "address",
          "name": "",
          "type": "address"
        }
      ],
      "name": "accrued",
      "outputs": [
        {
          "internalType": "uint256",
          "name": "",
          "type": "uint256"
        }
      ],
      "stateMutability": "view",
      "type": "function"
    },
    {
      "inputs": [
        {
          "internalType": "address payable",
          "name": "_account",
          "type": "address"
        }
      ],
      "name": "drawDown",
      "outputs": [],
      "stateMutability": "nonpayable",
      "type": "function"
    },
    {
      "inputs": [
        {
          "internalType": "uint256",
          "name": "_tagId",
          "type": "uint256"
        }
      ],
      "name": "getTagInfo",
      "outputs": [
        {
          "internalType": "uint256",
          "name": "_hashtagId",
          "type": "uint256"
        },
        {
          "internalType": "address",
          "name": "_nftContract",
          "type": "address"
        },
        {
          "internalType": "uint256",
          "name": "_nftId",
          "type": "uint256"
        },
        {
          "internalType": "address",
          "name": "_tagger",
          "type": "address"
        },
        {
          "internalType": "uint256",
          "name": "_tagstamp",
          "type": "uint256"
        },
        {
          "internalType": "address",
          "name": "_publisher",
          "type": "address"
        }
      ],
      "stateMutability": "view",
      "type": "function"
    },
    {
      "inputs": [],
      "name": "hashtagProtocol",
      "outputs": [
        {
          "internalType": "contract HashtagProtocol",
          "name": "",
          "type": "address"
        }
      ],
      "stateMutability": "view",
      "type": "function"
    },
    {
      "inputs": [
        {
          "internalType": "string",
          "name": "_hashtag",
          "type": "string"
        },
        {
          "internalType": "address",
          "name": "_nftContract",
          "type": "address"
        },
        {
          "internalType": "uint256",
          "name": "_nftId",
          "type": "uint256"
        },
        {
          "internalType": "address payable",
          "name": "_publisher",
          "type": "address"
        },
        {
          "internalType": "address",
          "name": "_tagger",
          "type": "address"
        }
      ],
      "name": "mintAndTag",
      "outputs": [],
      "stateMutability": "payable",
      "type": "function"
    },
    {
      "inputs": [],
      "name": "modulo",
      "outputs": [
        {
          "internalType": "uint256",
          "name": "",
          "type": "uint256"
        }
      ],
      "stateMutability": "view",
      "type": "function"
    },
    {
      "inputs": [
        {
          "internalType": "address",
          "name": "",
          "type": "address"
        }
      ],
      "name": "paid",
      "outputs": [
        {
          "internalType": "uint256",
          "name": "",
          "type": "uint256"
        }
      ],
      "stateMutability": "view",
      "type": "function"
    },
    {
      "inputs": [],
      "name": "platformPercentage",
      "outputs": [
        {
          "internalType": "uint256",
          "name": "",
          "type": "uint256"
        }
      ],
      "stateMutability": "view",
      "type": "function"
    },
    {
      "inputs": [],
      "name": "publisherPercentage",
      "outputs": [
        {
          "internalType": "uint256",
          "name": "",
          "type": "uint256"
        }
      ],
      "stateMutability": "view",
      "type": "function"
    },
    {
      "inputs": [],
      "name": "remainingPercentage",
      "outputs": [
        {
          "internalType": "uint256",
          "name": "",
          "type": "uint256"
        }
      ],
      "stateMutability": "view",
      "type": "function"
    },
    {
      "inputs": [
        {
          "internalType": "uint256",
          "name": "_fee",
          "type": "uint256"
        }
      ],
      "name": "setTagFee",
      "outputs": [],
      "stateMutability": "nonpayable",
      "type": "function"
    },
    {
      "inputs": [
        {
          "internalType": "uint256",
          "name": "_hashtagId",
          "type": "uint256"
        },
        {
          "internalType": "address",
          "name": "_nftContract",
          "type": "address"
        },
        {
          "internalType": "uint256",
          "name": "_nftId",
          "type": "uint256"
        },
        {
          "internalType": "address",
          "name": "_publisher",
          "type": "address"
        },
        {
          "internalType": "address",
          "name": "_tagger",
          "type": "address"
        }
      ],
      "name": "tag",
      "outputs": [],
      "stateMutability": "payable",
      "type": "function"
    },
    {
      "inputs": [],
      "name": "tagFee",
      "outputs": [
        {
          "internalType": "uint256",
          "name": "",
          "type": "uint256"
        }
      ],
      "stateMutability": "view",
      "type": "function"
    },
    {
      "inputs": [
        {
          "internalType": "uint256",
          "name": "",
          "type": "uint256"
        }
      ],
      "name": "tagIdToTag",
      "outputs": [
        {
          "internalType": "uint256",
          "name": "hashtagId",
          "type": "uint256"
        },
        {
          "internalType": "address",
          "name": "nftContract",
          "type": "address"
        },
        {
          "internalType": "uint256",
          "name": "nftId",
          "type": "uint256"
        },
        {
          "internalType": "address",
          "name": "tagger",
          "type": "address"
        },
        {
          "internalType": "uint256",
          "name": "tagstamp",
          "type": "uint256"
        },
        {
          "internalType": "address",
          "name": "publisher",
          "type": "address"
        }
      ],
      "stateMutability": "view",
      "type": "function"
    },
    {
      "inputs": [
        {
          "internalType": "address",
          "name": "_account",
          "type": "address"
        }
      ],
      "name": "totalDue",
      "outputs": [
        {
          "internalType": "uint256",
          "name": "_due",
          "type": "uint256"
        }
      ],
      "stateMutability": "view",
      "type": "function"
    },
    {
      "inputs": [],
      "name": "totalTags",
      "outputs": [
        {
          "internalType": "uint256",
          "name": "",
          "type": "uint256"
        }
      ],
      "stateMutability": "view",
      "type": "function"
    },
    {
      "inputs": [
        {
          "internalType": "contract HashtagAccessControls",
          "name": "_accessControls",
          "type": "address"
        }
      ],
      "name": "updateAccessControls",
      "outputs": [],
      "stateMutability": "nonpayable",
      "type": "function"
    },
    {
      "inputs": [
        {
          "internalType": "uint256",
          "name": "_platformPercentage",
          "type": "uint256"
        },
        {
          "internalType": "uint256",
          "name": "_publisherPercentage",
          "type": "uint256"
        }
      ],
      "name": "updatePercentages",
      "outputs": [],
      "stateMutability": "nonpayable",
      "type": "function"
    }
  ],
  "bytecode": "0x60806040526014600355601e6004556032600555600060085566038d7ea4c6800060095534801561002f57600080fd5b50604051611a9c380380611a9c8339818101604052604081101561005257600080fd5b5080516020909101516001600081905580546001600160a01b039384166001600160a01b031991821617909155600280549390921692169190911790556119fe8061009e6000396000f3fe6080604052600436106101135760003560e01c8063748365ef116100a0578063b148440f11610064578063b148440f1461035d578063c206200514610390578063c20d2295146103c3578063cf325022146103f3578063d5cb95ea1461048257610113565b8063748365ef146102945780637e2e4c52146102a95780639216afb9146102be578063a1b3c18414610300578063a340cf791461032a57610113565b806329745262116100e757806329745262146101ef578063337ccf9d14610204578063648afdee146102195780636ef3da941461024a578063716a5b491461027f57610113565b8062e9236f146101185780630ad2f0c31461013f57806311167ae0146101725780631f741897146101da575b600080fd5b34801561012457600080fd5b5061012d6104ac565b60408051918252519081900360200190f35b34801561014b57600080fd5b5061012d6004803603602081101561016257600080fd5b50356001600160a01b03166104b2565b34801561017e57600080fd5b5061019c6004803603602081101561019557600080fd5b50356104e5565b604080519687526001600160a01b039586166020880152868101949094529184166060860152608085015290911660a0830152519081900360c00190f35b3480156101e657600080fd5b5061012d610529565b3480156101fb57600080fd5b5061012d61052f565b34801561021057600080fd5b5061012d610534565b34801561022557600080fd5b5061022e61053a565b604080516001600160a01b039092168252519081900360200190f35b34801561025657600080fd5b5061027d6004803603602081101561026d57600080fd5b50356001600160a01b0316610549565b005b34801561028b57600080fd5b5061012d61067a565b3480156102a057600080fd5b5061022e610680565b3480156102b557600080fd5b5061012d61068f565b61027d600480360360a08110156102d457600080fd5b508035906001600160a01b03602082013581169160408101359160608201358116916080013516610695565b34801561030c57600080fd5b5061027d6004803603602081101561032357600080fd5b50356108c9565b34801561033657600080fd5b5061012d6004803603602081101561034d57600080fd5b50356001600160a01b0316610998565b34801561036957600080fd5b5061012d6004803603602081101561038057600080fd5b50356001600160a01b03166109aa565b34801561039c57600080fd5b5061027d600480360360208110156103b357600080fd5b50356001600160a01b03166109bc565b3480156103cf57600080fd5b5061027d600480360360408110156103e657600080fd5b5080359060200135610b10565b61027d600480360360a081101561040957600080fd5b81019060208101813564010000000081111561042457600080fd5b82018360208201111561043657600080fd5b8035906020019184600183028401116401000000008311171561045857600080fd5b91935091506001600160a01b03813581169160208101359160408201358116916060013516610c49565b34801561048e57600080fd5b5061019c600480360360208110156104a557600080fd5b5035610e14565b60085481565b6001600160a01b03811660009081526007602090815260408083205460069092528220546104df91610e58565b92915050565b600a6020526000908152604090208054600182015460028301546003840154600485015460059095015493946001600160a01b039384169492939182169290911686565b60035481565b606481565b60055481565b6002546001600160a01b031681565b6001546001600160a01b03166324d7806c610562610eb5565b6040518263ffffffff1660e01b815260040180826001600160a01b0316815260200191505060206040518083038186803b15801561059f57600080fd5b505afa1580156105b3573d6000803e3d6000fd5b505050506040513d60208110156105c957600080fd5b5051610613576040805162461bcd60e51b815260206004820152601460248201527321b0b63632b91036bab9ba1031329030b236b4b760611b604482015290519081900360640190fd5b6001600160a01b0381166106585760405162461bcd60e51b815260040180806020018281038252603a815260200180611874603a913960400191505060405180910390fd5b600180546001600160a01b0319166001600160a01b0392909216919091179055565b60095481565b6001546001600160a01b031681565b60045481565b600260005414156106ed576040805162461bcd60e51b815260206004820152601f60248201527f5265656e7472616e637947756172643a207265656e7472616e742063616c6c00604482015290519081900360640190fd5b600260005560015460408051630830b35960e31b81526001600160a01b038581166004830152915191909216916341859ac8916024808301926020929190829003018186803b15801561073f57600080fd5b505afa158015610753573d6000803e3d6000fd5b505050506040513d602081101561076957600080fd5b50516107a65760405162461bcd60e51b815260040180806020018281038252602681526020018061197c6026913960400191505060405180910390fd5b6009543410156107fd576040805162461bcd60e51b815260206004820152601a60248201527f5461673a20596f75206d7573742073656e642074686520666565000000000000604482015290519081900360640190fd5b60025460408051634f558e7960e01b81526004810188905290516001600160a01b0390921691634f558e7991602480820192602092909190829003018186803b15801561084957600080fd5b505afa15801561085d573d6000803e3d6000fd5b505050506040513d602081101561087357600080fd5b50516108b05760405162461bcd60e51b815260040180806020018281038252603d8152602001806117fb603d913960400191505060405180910390fd5b6108bd8585858585610eba565b50506001600055505050565b6001546001600160a01b03166324d7806c6108e2610eb5565b6040518263ffffffff1660e01b815260040180826001600160a01b0316815260200191505060206040518083038186803b15801561091f57600080fd5b505afa158015610933573d6000803e3d6000fd5b505050506040513d602081101561094957600080fd5b5051610993576040805162461bcd60e51b815260206004820152601460248201527321b0b63632b91036bab9ba1031329030b236b4b760611b604482015290519081900360640190fd5b600955565b60076020526000908152604090205481565b60066020526000908152604090205481565b60026000541415610a14576040805162461bcd60e51b815260206004820152601f60248201527f5265656e7472616e637947756172643a207265656e7472616e742063616c6c00604482015290519081900360640190fd5b600260009081556001600160a01b0382168152600760209081526040808320546006909252822054610a4591610e58565b9050600081118015610a575750478111155b15610b07576001600160a01b038216600090815260076020526040902054610a7f90826112df565b6001600160a01b038316600081815260076020526040808220939093559151909183156108fc02918491818181858888f19350505050158015610ac6573d6000803e3d6000fd5b506040805182815290516001600160a01b038416917f59901f31ae2f183042d33e59b8b37be57d21ddf6351ebf066ee2eace7229bdfa919081900360200190a25b50506001600055565b6001546001600160a01b03166324d7806c610b29610eb5565b6040518263ffffffff1660e01b815260040180826001600160a01b0316815260200191505060206040518083038186803b158015610b6657600080fd5b505afa158015610b7a573d6000803e3d6000fd5b505050506040513d6020811015610b9057600080fd5b5051610bda576040805162461bcd60e51b815260206004820152601460248201527321b0b63632b91036bab9ba1031329030b236b4b760611b604482015290519081900360640190fd5b6064610be683836112df565b1115610c235760405162461bcd60e51b81526004018080602001828103825260498152602001806119336049913960600191505060405180910390fd5b60038290556004819055610c4281610c3c606485610e58565b90610e58565b6005555050565b60015460408051630830b35960e31b81526001600160a01b038581166004830152915191909216916341859ac8916024808301926020929190829003018186803b158015610c9657600080fd5b505afa158015610caa573d6000803e3d6000fd5b505050506040513d6020811015610cc057600080fd5b5051610cfd5760405162461bcd60e51b815260040180806020018281038252602f8152602001806117cc602f913960400191505060405180910390fd5b600954341015610d3e5760405162461bcd60e51b81526004018080602001828103825260278152602001806119a26027913960400191505060405180910390fd5b600254604051633f36ca2f60e11b81526001600160a01b0384811660248301528381166044830152606060048301908152606483018990526000939190911691637e6d945e918a918a9188918891908190608401868680828437600081840152601f19601f82011690508083019250505095505050505050602060405180830381600087803b158015610dd057600080fd5b505af1158015610de4573d6000803e3d6000fd5b505050506040513d6020811015610dfa57600080fd5b50519050610e0b8186868686610eba565b50505050505050565b6000908152600a602052604090208054600182015460028301546003840154600485015460059095015493956001600160a01b039384169592949184169390911690565b600082821115610eaf576040805162461bcd60e51b815260206004820152601e60248201527f536166654d6174683a207375627472616374696f6e206f766572666c6f770000604482015290519081900360640190fd5b50900390565b335b90565b6002546001600160a01b0385811691161415610f075760405162461bcd60e51b815260040180806020018281038252603c815260200180611838603c913960400191505060405180910390fd5b610f1084611340565b610f1a848461155c565b600854610f289060016112df565b60088190556040805160c0810182528781526001600160a01b0380881660208084019182528385018981528784166060860190815242608087019081528a861660a0880190815260008a8152600a9095528885209751885594516001880180549188166001600160a01b03199283161790559251600280890191909155915160038801805491881691851691909117905551600480880191909155935160059096018054968616969092169590951790559254845163878327ab60e01b81529182018b9052845193948594919093169263878327ab9260248082019391829003018186803b15801561101957600080fd5b505afa15801561102d573d6000803e3d6000fd5b505050506040513d604081101561104357600080fd5b50805160209091015190925090506001600160a01b0380821690831614156111dc576110a761108860646110826003543461166090919063ffffffff16565b906116b9565b6001600160a01b038416600090815260066020526040902054906112df565b6001600160a01b0383166000908152600660205260409020556004546110f8906110d990606490611082903490611660565b6001600160a01b038716600090815260066020526040902054906112df565b6001600160a01b03808716600090815260066020908152604080832094909455600254845163a30b4db960e01b8152600481018e90529451929493169263a30b4db99260248083019392829003018186803b15801561115657600080fd5b505afa15801561116a573d6000803e3d6000fd5b505050506040513d602081101561118057600080fd5b50516005549091506111bd9061119e90606490611082903490611660565b6001600160a01b038316600090815260066020526040902054906112df565b6001600160a01b03909116600090815260066020526040902055611277565b6111f961108860646110826003543461166090919063ffffffff16565b6001600160a01b03831660009081526006602052604090205560045461122b906110d990606490611082903490611660565b6001600160a01b03861660009081526006602052604090205560055461125d9061119e90606490611082903490611660565b6001600160a01b0382166000908152600660205260409020555b600954604080518a8152602081018990528082018690526060810192909252516001600160a01b03808816928a821692918816917f4d94baf148184b8e7e9d47f43100e3258b564a3f25796ace47454bdb1d1444859181900360800190a45050505050505050565b600082820183811015611339576040805162461bcd60e51b815260206004820152601b60248201527f536166654d6174683a206164646974696f6e206f766572666c6f770000000000604482015290519081900360640190fd5b9392505050565b604080516301ffc9a760e01b81526380ac58cd60e01b600482015290516001600160a01b038316916301ffc9a7916024808301926020929190829003018186803b15801561138d57600080fd5b505afa9250505080156113b257506040513d60208110156113ad57600080fd5b505160015b611492576113be611726565b806113c9575061144e565b8060405162461bcd60e51b81526004018080602001828103825283818151815260200191508051906020019080838360005b838110156114135781810151838201526020016113fb565b50505050905090810190601f1680156114405780820380516001836020036101000a031916815260200191505b509250505060405180910390fd5b6040805162461bcd60e51b8152602060048201526014602482015273125b9d985b1a59081391950818dbdb9d1c9858dd60621b604482015290519081900360640190fd5b8061155857604080516301ffc9a760e01b8152639a20483d60e01b600482015290516001600160a01b038416916301ffc9a7916024808301926020929190829003018186803b1580156114e457600080fd5b505afa92505050801561150957506040513d602081101561150457600080fd5b505160015b611515576113be611726565b6001811515146115565760405162461bcd60e51b81526004018080602001828103825260308152602001806119036030913960400191505060405180910390fd5b505b5050565b816001600160a01b0316636352211e826040518263ffffffff1660e01b81526004018082815260200191505060206040518083038186803b1580156115a057600080fd5b505afa9250505080156115c557506040513d60208110156115c057600080fd5b505160015b61161b576115d1611726565b806113c957506040805162461bcd60e51b8152602060048201526014602482015273151bdad95b88191bd95cc81b9bdd08195e1a5cdd60621b604482015290519081900360640190fd5b6001600160a01b0381166115565760405162461bcd60e51b81526004018080602001828103825260348152602001806118ae6034913960400191505060405180910390fd5b60008261166f575060006104df565b8282028284828161167c57fe5b04146113395760405162461bcd60e51b81526004018080602001828103825260218152602001806118e26021913960400191505060405180910390fd5b600080821161170f576040805162461bcd60e51b815260206004820152601a60248201527f536166654d6174683a206469766973696f6e206279207a65726f000000000000604482015290519081900360640190fd5b81838161171857fe5b049392505050565b60e01c90565b600060443d101561173657610eb7565b600481823e6308c379a061174a8251611720565b1461175457610eb7565b6040513d600319016004823e80513d67ffffffffffffffff81602484011181841117156117845750505050610eb7565b8284019250825191508082111561179e5750505050610eb7565b503d830160208284010111156117b657505050610eb7565b601f01601f191681016020016040529150509056fe4d696e7420616e64207461673a20546865207075626c6973686572206d7573742062652077686974656c69737465645461673a20546865206861736874616720494420737570706c69656420697320696e76616c6964202d206e6f6e2d6578697374656e7420746f6b656e215461673a20496e76616c696420746167202d20796f752061726520617474656d7074696e6720746f2074616720616e6f7468657220686173687461674552433732314861736874616752656769737472792e757064617465416363657373436f6e74726f6c733a2043616e6e6f74206265207a65726f546f6b656e20646f6573206e6f74206578697374206f72206973206f776e656420627920746865207a65726f2061646472657373536166654d6174683a206d756c7469706c69636174696f6e206f766572666c6f77436f6e747261637420646f6573206e6f7420696d706c656d656e74207468652045524337323120696e746572666163654552433732314861736874616752656769737472792e75706461746550657263656e74616765733a2070657263656e7461676573206d757374206e6f74206265206f766572203130305461673a20546865207075626c6973686572206d7573742062652077686974656c69737465644d696e7420616e64207461673a20596f75206d7573742073656e64207468652074616720666565a2646970667358221220fac1d52435e7928fffd20b790b234fa2f307aa3860ef2d194dff4ae851d3698b64736f6c634300060c0033",
  "linkReferences": {},
  "deployedLinkReferences": {}
}