{
  "_format": "hh-sol-artifact-1",
  "contractName": "ERC721HashtagRegistry",
  "sourceName": "contracts/ERC721HashtagRegistry.sol",
  "abi": [
    {
      "inputs": [
        {
          "internalType": "contract HashtagAccessControls",
          "name": "_accessControls",
          "type": "address"
        },
        {
          "internalType": "contract HashtagProtocol",
          "name": "_hashtagProtocol",
          "type": "address"
        }
      ],
      "stateMutability": "nonpayable",
      "type": "constructor"
    },
    {
      "anonymous": false,
      "inputs": [
        {
          "indexed": true,
          "internalType": "address",
          "name": "who",
          "type": "address"
        },
        {
          "indexed": false,
          "internalType": "uint256",
          "name": "amount",
          "type": "uint256"
        }
      ],
      "name": "DrawDown",
      "type": "event"
    },
    {
      "anonymous": false,
      "inputs": [
        {
          "indexed": true,
          "internalType": "address",
          "name": "tagger",
          "type": "address"
        },
        {
          "indexed": true,
          "internalType": "address",
          "name": "nftContract",
          "type": "address"
        },
        {
          "indexed": true,
          "internalType": "address",
          "name": "publisher",
          "type": "address"
        },
        {
          "indexed": false,
          "internalType": "uint256",
          "name": "hashtagId",
          "type": "uint256"
        },
        {
          "indexed": false,
          "internalType": "uint256",
          "name": "nftId",
          "type": "uint256"
        },
        {
          "indexed": false,
          "internalType": "uint256",
          "name": "tagId",
          "type": "uint256"
        },
        {
          "indexed": false,
          "internalType": "uint256",
          "name": "tagFee",
          "type": "uint256"
        },
        {
          "indexed": false,
          "internalType": "uint256",
          "name": "nftChainId",
          "type": "uint256"
        }
      ],
      "name": "HashtagRegistered",
      "type": "event"
    },
    {
      "inputs": [],
      "name": "accessControls",
      "outputs": [
        {
          "internalType": "contract HashtagAccessControls",
          "name": "",
          "type": "address"
        }
      ],
      "stateMutability": "view",
      "type": "function"
    },
    {
      "inputs": [
        {
          "internalType": "address",
          "name": "",
          "type": "address"
        }
      ],
      "name": "accrued",
      "outputs": [
        {
          "internalType": "uint256",
          "name": "",
          "type": "uint256"
        }
      ],
      "stateMutability": "view",
      "type": "function"
    },
    {
      "inputs": [
        {
          "internalType": "address payable",
          "name": "_account",
          "type": "address"
        }
      ],
      "name": "drawDown",
      "outputs": [],
      "stateMutability": "nonpayable",
      "type": "function"
    },
    {
      "inputs": [
        {
          "internalType": "uint256",
          "name": "_nftChainId",
          "type": "uint256"
        }
      ],
      "name": "getPermittedNftChainId",
      "outputs": [
        {
          "internalType": "bool",
          "name": "",
          "type": "bool"
        }
      ],
      "stateMutability": "view",
      "type": "function"
    },
    {
      "inputs": [
        {
          "internalType": "uint256",
          "name": "_tagId",
          "type": "uint256"
        }
      ],
      "name": "getTagInfo",
      "outputs": [
        {
          "internalType": "uint256",
          "name": "_hashtagId",
          "type": "uint256"
        },
        {
          "internalType": "address",
          "name": "_nftContract",
          "type": "address"
        },
        {
          "internalType": "uint256",
          "name": "_nftId",
          "type": "uint256"
        },
        {
          "internalType": "address",
          "name": "_tagger",
          "type": "address"
        },
        {
          "internalType": "uint256",
          "name": "_tagstamp",
          "type": "uint256"
        },
        {
          "internalType": "address",
          "name": "_publisher",
          "type": "address"
        },
        {
          "internalType": "uint256",
          "name": "_nftChainId",
          "type": "uint256"
        }
      ],
      "stateMutability": "view",
      "type": "function"
    },
    {
      "inputs": [],
      "name": "hashtagProtocol",
      "outputs": [
        {
          "internalType": "contract HashtagProtocol",
          "name": "",
          "type": "address"
        }
      ],
      "stateMutability": "view",
      "type": "function"
    },
    {
      "inputs": [
        {
          "internalType": "string",
          "name": "_hashtag",
          "type": "string"
        },
        {
          "internalType": "address",
          "name": "_nftContract",
          "type": "address"
        },
        {
          "internalType": "uint256",
          "name": "_nftId",
          "type": "uint256"
        },
        {
          "internalType": "address payable",
          "name": "_publisher",
          "type": "address"
        },
        {
          "internalType": "address",
          "name": "_tagger",
          "type": "address"
        },
        {
          "internalType": "uint256",
          "name": "_nftChainId",
          "type": "uint256"
        }
      ],
      "name": "mintAndTag",
      "outputs": [],
      "stateMutability": "payable",
      "type": "function"
    },
    {
      "inputs": [],
      "name": "modulo",
      "outputs": [
        {
          "internalType": "uint256",
          "name": "",
          "type": "uint256"
        }
      ],
      "stateMutability": "view",
      "type": "function"
    },
    {
      "inputs": [
        {
          "internalType": "address",
          "name": "",
          "type": "address"
        }
      ],
      "name": "paid",
      "outputs": [
        {
          "internalType": "uint256",
          "name": "",
          "type": "uint256"
        }
      ],
      "stateMutability": "view",
      "type": "function"
    },
    {
      "inputs": [
        {
          "internalType": "uint256",
          "name": "",
          "type": "uint256"
        }
      ],
      "name": "permittedNftChainIds",
      "outputs": [
        {
          "internalType": "bool",
          "name": "",
          "type": "bool"
        }
      ],
      "stateMutability": "view",
      "type": "function"
    },
    {
      "inputs": [],
      "name": "platformPercentage",
      "outputs": [
        {
          "internalType": "uint256",
          "name": "",
          "type": "uint256"
        }
      ],
      "stateMutability": "view",
      "type": "function"
    },
    {
      "inputs": [],
      "name": "publisherPercentage",
      "outputs": [
        {
          "internalType": "uint256",
          "name": "",
          "type": "uint256"
        }
      ],
      "stateMutability": "view",
      "type": "function"
    },
    {
      "inputs": [],
      "name": "remainingPercentage",
      "outputs": [
        {
          "internalType": "uint256",
          "name": "",
          "type": "uint256"
        }
      ],
      "stateMutability": "view",
      "type": "function"
    },
    {
      "inputs": [
        {
          "internalType": "uint256",
          "name": "_nftChainId",
          "type": "uint256"
        },
        {
          "internalType": "bool",
          "name": "_setting",
          "type": "bool"
        }
      ],
      "name": "setPermittedNftChainId",
      "outputs": [],
      "stateMutability": "nonpayable",
      "type": "function"
    },
    {
      "inputs": [
        {
          "internalType": "uint256",
          "name": "_fee",
          "type": "uint256"
        }
      ],
      "name": "setTagFee",
      "outputs": [],
      "stateMutability": "nonpayable",
      "type": "function"
    },
    {
      "inputs": [
        {
          "internalType": "uint256",
          "name": "_hashtagId",
          "type": "uint256"
        },
        {
          "internalType": "address",
          "name": "_nftContract",
          "type": "address"
        },
        {
          "internalType": "uint256",
          "name": "_nftId",
          "type": "uint256"
        },
        {
          "internalType": "address",
          "name": "_publisher",
          "type": "address"
        },
        {
          "internalType": "address",
          "name": "_tagger",
          "type": "address"
        },
        {
          "internalType": "uint256",
          "name": "_nftChainId",
          "type": "uint256"
        }
      ],
      "name": "tag",
      "outputs": [],
      "stateMutability": "payable",
      "type": "function"
    },
    {
      "inputs": [],
      "name": "tagFee",
      "outputs": [
        {
          "internalType": "uint256",
          "name": "",
          "type": "uint256"
        }
      ],
      "stateMutability": "view",
      "type": "function"
    },
    {
      "inputs": [
        {
          "internalType": "uint256",
          "name": "",
          "type": "uint256"
        }
      ],
      "name": "tagIdToTag",
      "outputs": [
        {
          "internalType": "uint256",
          "name": "hashtagId",
          "type": "uint256"
        },
        {
          "internalType": "address",
          "name": "nftContract",
          "type": "address"
        },
        {
          "internalType": "uint256",
          "name": "nftId",
          "type": "uint256"
        },
        {
          "internalType": "address",
          "name": "tagger",
          "type": "address"
        },
        {
          "internalType": "uint256",
          "name": "tagstamp",
          "type": "uint256"
        },
        {
          "internalType": "address",
          "name": "publisher",
          "type": "address"
        },
        {
          "internalType": "uint256",
          "name": "nftChainId",
          "type": "uint256"
        }
      ],
      "stateMutability": "view",
      "type": "function"
    },
    {
      "inputs": [
        {
          "internalType": "address",
          "name": "_account",
          "type": "address"
        }
      ],
      "name": "totalDue",
      "outputs": [
        {
          "internalType": "uint256",
          "name": "_due",
          "type": "uint256"
        }
      ],
      "stateMutability": "view",
      "type": "function"
    },
    {
      "inputs": [],
      "name": "totalTags",
      "outputs": [
        {
          "internalType": "uint256",
          "name": "",
          "type": "uint256"
        }
      ],
      "stateMutability": "view",
      "type": "function"
    },
    {
      "inputs": [
        {
          "internalType": "contract HashtagAccessControls",
          "name": "_accessControls",
          "type": "address"
        }
      ],
      "name": "updateAccessControls",
      "outputs": [],
      "stateMutability": "nonpayable",
      "type": "function"
    },
    {
      "inputs": [
        {
          "internalType": "uint256",
          "name": "_platformPercentage",
          "type": "uint256"
        },
        {
          "internalType": "uint256",
          "name": "_publisherPercentage",
          "type": "uint256"
        }
      ],
      "name": "updatePercentages",
      "outputs": [],
      "stateMutability": "nonpayable",
      "type": "function"
    }
  ],
  "bytecode": "0x60806040526014600355601e6004556032600555600060085566038d7ea4c6800060095534801561002f57600080fd5b50604051611a86380380611a868339818101604052604081101561005257600080fd5b5080516020909101516001600081905580546001600160a01b039384166001600160a01b031991821617909155600280549390921692169190911790556119e88061009e6000396000f3fe6080604052600436106101345760003560e01c8063748365ef116100ab578063a340cf791161006f578063a340cf791461045d578063a97dda4014610490578063b148440f146104c2578063c2062005146104f5578063c20d229514610528578063d5cb95ea1461055857610134565b8063748365ef146103285780637e2e4c521461033d5780637f83b0bb146103525780638d7208021461039c578063a1b3c1841461043357610134565b8063200e06af116100fd578063200e06af146102595780632974526214610283578063337ccf9d14610298578063648afdee146102ad5780636ef3da94146102de578063716a5b491461031357610134565b8062e9236f146101395780630ad2f0c31461016057806311167ae0146101935780631797df59146102065780631f74189714610244575b600080fd5b34801561014557600080fd5b5061014e610582565b60408051918252519081900360200190f35b34801561016c57600080fd5b5061014e6004803603602081101561018357600080fd5b50356001600160a01b0316610588565b34801561019f57600080fd5b506101bd600480360360208110156101b657600080fd5b50356105bb565b604080519788526001600160a01b039687166020890152878101959095529285166060870152608086019190915290921660a084015260c0830191909152519081900360e00190f35b34801561021257600080fd5b506102306004803603602081101561022957600080fd5b5035610605565b604080519115158252519081900360200190f35b34801561025057600080fd5b5061014e61061a565b34801561026557600080fd5b506102306004803603602081101561027c57600080fd5b5035610620565b34801561028f57600080fd5b5061014e610635565b3480156102a457600080fd5b5061014e61063a565b3480156102b957600080fd5b506102c2610640565b604080516001600160a01b039092168252519081900360200190f35b3480156102ea57600080fd5b506103116004803603602081101561030157600080fd5b50356001600160a01b031661064f565b005b34801561031f57600080fd5b5061014e610780565b34801561033457600080fd5b506102c2610786565b34801561034957600080fd5b5061014e610795565b610311600480360360c081101561036857600080fd5b508035906001600160a01b036020820135811691604081013591606082013581169160808101359091169060a0013561079b565b610311600480360360c08110156103b257600080fd5b8101906020810181356401000000008111156103cd57600080fd5b8201836020820111156103df57600080fd5b8035906020019184600183028401116401000000008311171561040157600080fd5b91935091506001600160a01b038135811691602081013591604082013581169160608101359091169060800135610a7c565b34801561043f57600080fd5b506103116004803603602081101561045657600080fd5b5035610cf4565b34801561046957600080fd5b5061014e6004803603602081101561048057600080fd5b50356001600160a01b0316610dc3565b34801561049c57600080fd5b50610311600480360360408110156104b357600080fd5b50803590602001351515610dd5565b3480156104ce57600080fd5b5061014e600480360360208110156104e557600080fd5b50356001600160a01b0316610ebf565b34801561050157600080fd5b506103116004803603602081101561051857600080fd5b50356001600160a01b0316610ed1565b34801561053457600080fd5b506103116004803603604081101561054b57600080fd5b5080359060200135611025565b34801561056457600080fd5b506101bd6004803603602081101561057b57600080fd5b503561115e565b60085481565b6001600160a01b03811660009081526007602090815260408083205460069092528220546105b5916111ab565b92915050565b600b60205260009081526040902080546001820154600283015460038401546004850154600586015460069096015494956001600160a01b03948516959394928316939192169087565b6000908152600a602052604090205460ff1690565b60035481565b600a6020526000908152604090205460ff1681565b606481565b60055481565b6002546001600160a01b031681565b6001546001600160a01b03166324d7806c610668611208565b6040518263ffffffff1660e01b815260040180826001600160a01b0316815260200191505060206040518083038186803b1580156106a557600080fd5b505afa1580156106b9573d6000803e3d6000fd5b505050506040513d60208110156106cf57600080fd5b5051610719576040805162461bcd60e51b815260206004820152601460248201527321b0b63632b91036bab9ba1031329030b236b4b760611b604482015290519081900360640190fd5b6001600160a01b03811661075e5760405162461bcd60e51b815260040180806020018281038252603a815260200180611844603a913960400191505060405180910390fd5b600180546001600160a01b0319166001600160a01b0392909216919091179055565b60095481565b6001546001600160a01b031681565b60045481565b600260005414156107f3576040805162461bcd60e51b815260206004820152601f60248201527f5265656e7472616e637947756172643a207265656e7472616e742063616c6c00604482015290519081900360640190fd5b600260005560015460408051630830b35960e31b81526001600160a01b038681166004830152915191909216916341859ac8916024808301926020929190829003018186803b15801561084557600080fd5b505afa158015610859573d6000803e3d6000fd5b505050506040513d602081101561086f57600080fd5b50516108ac5760405162461bcd60e51b81526004018080602001828103825260268152602001806119666026913960400191505060405180910390fd5b600954341015610903576040805162461bcd60e51b815260206004820152601a60248201527f5461673a20596f75206d7573742073656e642074686520666565000000000000604482015290519081900360640190fd5b60025460408051634f558e7960e01b81526004810189905290516001600160a01b0390921691634f558e7991602480820192602092909190829003018186803b15801561094f57600080fd5b505afa158015610963573d6000803e3d6000fd5b505050506040513d602081101561097957600080fd5b50516109b65760405162461bcd60e51b815260040180806020018281038252603d8152602001806117cb603d913960400191505060405180910390fd5b306001600160a01b0316631797df59826040518263ffffffff1660e01b81526004018082815260200191505060206040518083038186803b1580156109fa57600080fd5b505afa158015610a0e573d6000803e3d6000fd5b505050506040513d6020811015610a2457600080fd5b5051610a615760405162461bcd60e51b81526004018080602001828103825260278152602001806118c66027913960400191505060405180910390fd5b610a6f86868686868661120c565b5050600160005550505050565b60015460408051630830b35960e31b81526001600160a01b038681166004830152915191909216916341859ac8916024808301926020929190829003018186803b158015610ac957600080fd5b505afa158015610add573d6000803e3d6000fd5b505050506040513d6020811015610af357600080fd5b5051610b305760405162461bcd60e51b815260040180806020018281038252602f81526020018061179c602f913960400191505060405180910390fd5b600954341015610b715760405162461bcd60e51b815260040180806020018281038252602781526020018061198c6027913960400191505060405180910390fd5b306001600160a01b0316631797df59826040518263ffffffff1660e01b81526004018082815260200191505060206040518083038186803b158015610bb557600080fd5b505afa158015610bc9573d6000803e3d6000fd5b505050506040513d6020811015610bdf57600080fd5b5051610c1c5760405162461bcd60e51b81526004018080602001828103825260308152602001806119366030913960400191505060405180910390fd5b600254604051633f36ca2f60e11b81526001600160a01b0385811660248301528481166044830152606060048301908152606483018a90526000939190911691637e6d945e918b918b9189918991908190608401868680828437600081840152601f19601f82011690508083019250505095505050505050602060405180830381600087803b158015610cae57600080fd5b505af1158015610cc2573d6000803e3d6000fd5b505050506040513d6020811015610cd857600080fd5b50519050610cea81878787878761120c565b5050505050505050565b6001546001600160a01b03166324d7806c610d0d611208565b6040518263ffffffff1660e01b815260040180826001600160a01b0316815260200191505060206040518083038186803b158015610d4a57600080fd5b505afa158015610d5e573d6000803e3d6000fd5b505050506040513d6020811015610d7457600080fd5b5051610dbe576040805162461bcd60e51b815260206004820152601460248201527321b0b63632b91036bab9ba1031329030b236b4b760611b604482015290519081900360640190fd5b600955565b60076020526000908152604090205481565b6001546001600160a01b03166324d7806c610dee611208565b6040518263ffffffff1660e01b815260040180826001600160a01b0316815260200191505060206040518083038186803b158015610e2b57600080fd5b505afa158015610e3f573d6000803e3d6000fd5b505050506040513d6020811015610e5557600080fd5b5051610e9f576040805162461bcd60e51b815260206004820152601460248201527321b0b63632b91036bab9ba1031329030b236b4b760611b604482015290519081900360640190fd5b6000918252600a6020526040909120805460ff1916911515919091179055565b60066020526000908152604090205481565b60026000541415610f29576040805162461bcd60e51b815260206004820152601f60248201527f5265656e7472616e637947756172643a207265656e7472616e742063616c6c00604482015290519081900360640190fd5b600260009081556001600160a01b0382168152600760209081526040808320546006909252822054610f5a916111ab565b9050600081118015610f6c5750478111155b1561101c576001600160a01b038216600090815260076020526040902054610f94908261167a565b6001600160a01b038316600081815260076020526040808220939093559151909183156108fc02918491818181858888f19350505050158015610fdb573d6000803e3d6000fd5b506040805182815290516001600160a01b038416917f59901f31ae2f183042d33e59b8b37be57d21ddf6351ebf066ee2eace7229bdfa919081900360200190a25b50506001600055565b6001546001600160a01b03166324d7806c61103e611208565b6040518263ffffffff1660e01b815260040180826001600160a01b0316815260200191505060206040518083038186803b15801561107b57600080fd5b505afa15801561108f573d6000803e3d6000fd5b505050506040513d60208110156110a557600080fd5b50516110ef576040805162461bcd60e51b815260206004820152601460248201527321b0b63632b91036bab9ba1031329030b236b4b760611b604482015290519081900360640190fd5b60646110fb838361167a565b11156111385760405162461bcd60e51b81526004018080602001828103825260498152602001806118ed6049913960600191505060405180910390fd5b60038290556004819055611157816111516064856111ab565b906111ab565b6005555050565b6000908152600b6020526040902080546001820154600283015460038401546004850154600586015460069096015494966001600160a01b03948516969395928516949193919091169190565b600082821115611202576040805162461bcd60e51b815260206004820152601e60248201527f536166654d6174683a207375627472616374696f6e206f766572666c6f770000604482015290519081900360640190fd5b50900390565b3390565b6002546001600160a01b03868116911614156112595760405162461bcd60e51b815260040180806020018281038252603c815260200180611808603c913960400191505060405180910390fd5b6001600160a01b03851661129e5760405162461bcd60e51b815260040180806020018281038252602781526020018061187e6027913960400191505060405180910390fd5b6008546112ac90600161167a565b60088190556040805160e0810182528881526001600160a01b0380891660208084019182528385018a81528884166060860190815242608087019081528b861660a0880190815260c088018b815260008b8152600b9096528986209851895595516001890180549189166001600160a01b031992831617905593516002808a0191909155925160038901805491891691861691909117905590516004808901919091559051600588018054918816919094161790925592516006909501949094559054845163878327ab60e01b81529384018c9052845191948594919093169263878327ab92602480840193829003018186803b1580156113ac57600080fd5b505afa1580156113c0573d6000803e3d6000fd5b505050506040513d60408110156113d657600080fd5b50805160209091015190925090506001600160a01b03808216908316141561156f5761143a61141b6064611415600354346116db90919063ffffffff16565b90611734565b6001600160a01b0384166000908152600660205260409020549061167a565b6001600160a01b03831660009081526006602052604090205560045461148b9061146c906064906114159034906116db565b6001600160a01b0388166000908152600660205260409020549061167a565b6001600160a01b03808816600090815260066020908152604080832094909455600254845163a30b4db960e01b8152600481018f90529451929493169263a30b4db99260248083019392829003018186803b1580156114e957600080fd5b505afa1580156114fd573d6000803e3d6000fd5b505050506040513d602081101561151357600080fd5b505160055490915061155090611531906064906114159034906116db565b6001600160a01b0383166000908152600660205260409020549061167a565b6001600160a01b0390911660009081526006602052604090205561160a565b61158c61141b6064611415600354346116db90919063ffffffff16565b6001600160a01b0383166000908152600660205260409020556004546115be9061146c906064906114159034906116db565b6001600160a01b0387166000908152600660205260409020556005546115f090611531906064906114159034906116db565b6001600160a01b0382166000908152600660205260409020555b600954604080518b8152602081018a9052808201869052606081019290925260808201869052516001600160a01b03808916928b821692918916917f40a9ba9de8394714f8ec93689783918c2ab7f2d7c763c5b804dd219851a253139181900360a00190a4505050505050505050565b6000828201838110156116d4576040805162461bcd60e51b815260206004820152601b60248201527f536166654d6174683a206164646974696f6e206f766572666c6f770000000000604482015290519081900360640190fd5b9392505050565b6000826116ea575060006105b5565b828202828482816116f757fe5b04146116d45760405162461bcd60e51b81526004018080602001828103825260218152602001806118a56021913960400191505060405180910390fd5b600080821161178a576040805162461bcd60e51b815260206004820152601a60248201527f536166654d6174683a206469766973696f6e206279207a65726f000000000000604482015290519081900360640190fd5b81838161179357fe5b04939250505056fe4d696e7420616e64207461673a20546865207075626c6973686572206d7573742062652077686974656c69737465645461673a20546865206861736874616720494420737570706c69656420697320696e76616c6964202d206e6f6e2d6578697374656e7420746f6b656e215461673a20496e76616c696420746167202d20796f752061726520617474656d7074696e6720746f2074616720616e6f7468657220686173687461674552433732314861736874616752656769737472792e757064617465416363657373436f6e74726f6c733a2043616e6e6f74206265207a65726f66756e6374696f6e2063616c6c20746f2061206e6f6e2d636f6e74726163742061646472657373536166654d6174683a206d756c7469706c69636174696f6e206f766572666c6f775461673a2054616767696e672074617267657420636861696e206e6f74207065726d69747465644552433732314861736874616752656769737472792e75706461746550657263656e74616765733a2070657263656e7461676573206d757374206e6f74206265206f766572203130304d696e7420616e64207461673a2054616767696e672074617267657420636861696e206e6f74207065726d69747465645461673a20546865207075626c6973686572206d7573742062652077686974656c69737465644d696e7420616e64207461673a20596f75206d7573742073656e64207468652074616720666565a26469706673582212200ecb2a749d79cec1c53f9b22007608e839cbfda5a5a05ceb09056086c15004ce64736f6c634300060c0033",
  "linkReferences": {},
  "deployedLinkReferences": {}
}