{
  "address": "0xCf7Ed3AccA5a467e9e704C703E8D87F634fB0Fc9",
  "abi": [
    {
      "inputs": [
        {
          "internalType": "contract HashtagAccessControls",
          "name": "_accessControls",
          "type": "address"
        },
        {
          "internalType": "address payable",
          "name": "_platform",
          "type": "address"
        }
      ],
      "stateMutability": "nonpayable",
      "type": "constructor"
    },
    {
      "anonymous": false,
      "inputs": [
        {
          "indexed": true,
          "internalType": "address",
          "name": "owner",
          "type": "address"
        },
        {
          "indexed": true,
          "internalType": "address",
          "name": "approved",
          "type": "address"
        },
        {
          "indexed": true,
          "internalType": "uint256",
          "name": "tokenId",
          "type": "uint256"
        }
      ],
      "name": "Approval",
      "type": "event"
    },
    {
      "anonymous": false,
      "inputs": [
        {
          "indexed": true,
          "internalType": "address",
          "name": "owner",
          "type": "address"
        },
        {
          "indexed": true,
          "internalType": "address",
          "name": "operator",
          "type": "address"
        },
        {
          "indexed": false,
          "internalType": "bool",
          "name": "approved",
          "type": "bool"
        }
      ],
      "name": "ApprovalForAll",
      "type": "event"
    },
    {
      "anonymous": false,
      "inputs": [
        {
          "indexed": true,
          "internalType": "uint256",
          "name": "tokenId",
          "type": "uint256"
        },
        {
          "indexed": true,
          "internalType": "address",
          "name": "caller",
          "type": "address"
        }
      ],
      "name": "HashtagRenewed",
      "type": "event"
    },
    {
      "anonymous": false,
      "inputs": [
        {
          "indexed": true,
          "internalType": "uint256",
          "name": "tokenId",
          "type": "uint256"
        },
        {
          "indexed": true,
          "internalType": "address",
          "name": "owner",
          "type": "address"
        }
      ],
      "name": "HashtagReset",
      "type": "event"
    },
    {
      "anonymous": false,
      "inputs": [
        {
          "indexed": true,
          "internalType": "uint256",
          "name": "tokenId",
          "type": "uint256"
        },
        {
          "indexed": false,
          "internalType": "string",
          "name": "displayHashtag",
          "type": "string"
        },
        {
          "indexed": true,
          "internalType": "address",
          "name": "publisher",
          "type": "address"
        },
        {
          "indexed": false,
          "internalType": "address",
          "name": "creator",
          "type": "address"
        }
      ],
      "name": "MintHashtag",
      "type": "event"
    },
    {
      "anonymous": false,
      "inputs": [
        {
          "indexed": false,
          "internalType": "uint256",
          "name": "originalOwnershipLength",
          "type": "uint256"
        },
        {
          "indexed": false,
          "internalType": "uint256",
          "name": "updatedOwnershipLength",
          "type": "uint256"
        }
      ],
      "name": "OwnershipTermLengthUpdated",
      "type": "event"
    },
    {
      "anonymous": false,
      "inputs": [
        {
          "indexed": false,
          "internalType": "uint256",
          "name": "originalRenewalPeriod",
          "type": "uint256"
        },
        {
          "indexed": false,
          "internalType": "uint256",
          "name": "updatedRenewalPeriod",
          "type": "uint256"
        }
      ],
      "name": "RenewalPeriodUpdated",
      "type": "event"
    },
    {
      "anonymous": false,
      "inputs": [
        {
          "indexed": true,
          "internalType": "address",
          "name": "from",
          "type": "address"
        },
        {
          "indexed": true,
          "internalType": "address",
          "name": "to",
          "type": "address"
        },
        {
          "indexed": true,
          "internalType": "uint256",
          "name": "tokenId",
          "type": "uint256"
        }
      ],
      "name": "Transfer",
      "type": "event"
    },
    {
      "inputs": [],
      "name": "accessControls",
      "outputs": [
        {
          "internalType": "contract HashtagAccessControls",
          "name": "",
          "type": "address"
        }
      ],
      "stateMutability": "view",
      "type": "function"
    },
    {
      "inputs": [
        {
          "internalType": "address",
          "name": "_approved",
          "type": "address"
        },
        {
          "internalType": "uint256",
          "name": "_tokenId",
          "type": "uint256"
        }
      ],
      "name": "approve",
      "outputs": [],
      "stateMutability": "nonpayable",
      "type": "function"
    },
    {
      "inputs": [
        {
          "internalType": "address",
          "name": "_owner",
          "type": "address"
        }
      ],
      "name": "balanceOf",
      "outputs": [
        {
          "internalType": "uint256",
          "name": "",
          "type": "uint256"
        }
      ],
      "stateMutability": "view",
      "type": "function"
    },
    {
      "inputs": [],
      "name": "baseURI",
      "outputs": [
        {
          "internalType": "string",
          "name": "",
          "type": "string"
        }
      ],
      "stateMutability": "view",
      "type": "function"
    },
    {
      "inputs": [
        {
          "internalType": "uint256",
          "name": "_tokenId",
          "type": "uint256"
        }
      ],
      "name": "exists",
      "outputs": [
        {
          "internalType": "bool",
          "name": "",
          "type": "bool"
        }
      ],
      "stateMutability": "view",
      "type": "function"
    },
    {
      "inputs": [
        {
          "internalType": "uint256",
          "name": "_tokenId",
          "type": "uint256"
        }
      ],
      "name": "getApproved",
      "outputs": [
        {
          "internalType": "address",
          "name": "",
          "type": "address"
        }
      ],
      "stateMutability": "view",
      "type": "function"
    },
    {
      "inputs": [
        {
          "internalType": "uint256",
          "name": "_tokenId",
          "type": "uint256"
        }
      ],
      "name": "getCreatorAddress",
      "outputs": [
        {
          "internalType": "address",
          "name": "_creator",
          "type": "address"
        }
      ],
      "stateMutability": "view",
      "type": "function"
    },
    {
      "inputs": [
        {
          "internalType": "uint256",
          "name": "_tokenId",
          "type": "uint256"
        }
      ],
      "name": "getPaymentAddresses",
      "outputs": [
        {
          "internalType": "address payable",
          "name": "_platform",
          "type": "address"
        },
        {
          "internalType": "address payable",
          "name": "_owner",
          "type": "address"
        }
      ],
      "stateMutability": "view",
      "type": "function"
    },
    {
      "inputs": [],
      "name": "hashtagMaxStringLength",
      "outputs": [
        {
          "internalType": "uint256",
          "name": "",
          "type": "uint256"
        }
      ],
      "stateMutability": "view",
      "type": "function"
    },
    {
      "inputs": [],
      "name": "hashtagMinStringLength",
      "outputs": [
        {
          "internalType": "uint256",
          "name": "",
          "type": "uint256"
        }
      ],
      "stateMutability": "view",
      "type": "function"
    },
    {
      "inputs": [
        {
          "internalType": "string",
          "name": "",
          "type": "string"
        }
      ],
      "name": "hashtagToTokenId",
      "outputs": [
        {
          "internalType": "uint256",
          "name": "",
          "type": "uint256"
        }
      ],
      "stateMutability": "view",
      "type": "function"
    },
    {
      "inputs": [
        {
          "internalType": "address",
          "name": "_owner",
          "type": "address"
        },
        {
          "internalType": "address",
          "name": "_operator",
          "type": "address"
        }
      ],
      "name": "isApprovedForAll",
      "outputs": [
        {
          "internalType": "bool",
          "name": "",
          "type": "bool"
        }
      ],
      "stateMutability": "view",
      "type": "function"
    },
    {
      "inputs": [
        {
          "internalType": "string",
          "name": "_hashtag",
          "type": "string"
        },
        {
          "internalType": "address payable",
          "name": "_publisher",
          "type": "address"
        },
        {
          "internalType": "address",
          "name": "_creator",
          "type": "address"
        }
      ],
      "name": "mint",
      "outputs": [
        {
          "internalType": "uint256",
          "name": "_tokenId",
          "type": "uint256"
        }
      ],
      "stateMutability": "payable",
      "type": "function"
    },
    {
      "inputs": [],
      "name": "name",
      "outputs": [
        {
          "internalType": "string",
          "name": "",
          "type": "string"
        }
      ],
      "stateMutability": "view",
      "type": "function"
    },
    {
      "inputs": [
        {
          "internalType": "uint256",
          "name": "_tokenId",
          "type": "uint256"
        }
      ],
      "name": "ownerOf",
      "outputs": [
        {
          "internalType": "address",
          "name": "",
          "type": "address"
        }
      ],
      "stateMutability": "view",
      "type": "function"
    },
    {
      "inputs": [],
      "name": "ownershipTermLength",
      "outputs": [
        {
          "internalType": "uint256",
          "name": "",
          "type": "uint256"
        }
      ],
      "stateMutability": "view",
      "type": "function"
    },
    {
      "inputs": [],
      "name": "platform",
      "outputs": [
        {
          "internalType": "address payable",
          "name": "",
          "type": "address"
        }
      ],
      "stateMutability": "view",
      "type": "function"
    },
    {
      "inputs": [
        {
          "internalType": "uint256",
          "name": "_tokenId",
          "type": "uint256"
        }
      ],
      "name": "recycleHashtag",
      "outputs": [],
      "stateMutability": "nonpayable",
      "type": "function"
    },
    {
      "inputs": [
        {
          "internalType": "uint256",
          "name": "_tokenId",
          "type": "uint256"
        }
      ],
      "name": "renewHashtag",
      "outputs": [],
      "stateMutability": "nonpayable",
      "type": "function"
    },
    {
      "inputs": [
        {
          "internalType": "address",
          "name": "_from",
          "type": "address"
        },
        {
          "internalType": "address",
          "name": "_to",
          "type": "address"
        },
        {
          "internalType": "uint256",
          "name": "_tokenId",
          "type": "uint256"
        }
      ],
      "name": "safeTransferFrom",
      "outputs": [],
      "stateMutability": "nonpayable",
      "type": "function"
    },
    {
      "inputs": [
        {
          "internalType": "address",
          "name": "_from",
          "type": "address"
        },
        {
          "internalType": "address",
          "name": "_to",
          "type": "address"
        },
        {
          "internalType": "uint256",
          "name": "_tokenId",
          "type": "uint256"
        },
        {
          "internalType": "bytes",
          "name": "_data",
          "type": "bytes"
        }
      ],
      "name": "safeTransferFrom",
      "outputs": [],
      "stateMutability": "nonpayable",
      "type": "function"
    },
    {
      "inputs": [
        {
          "internalType": "address",
          "name": "_operator",
          "type": "address"
        },
        {
          "internalType": "bool",
          "name": "_approved",
          "type": "bool"
        }
      ],
      "name": "setApprovalForAll",
      "outputs": [],
      "stateMutability": "nonpayable",
      "type": "function"
    },
    {
      "inputs": [
        {
          "internalType": "string",
          "name": "_baseURI",
          "type": "string"
        }
      ],
      "name": "setBaseURI",
      "outputs": [],
      "stateMutability": "nonpayable",
      "type": "function"
    },
    {
      "inputs": [
        {
          "internalType": "uint256",
          "name": "_hashtagMaxStringLength",
          "type": "uint256"
        }
      ],
      "name": "setHashtagMaxStringLength",
      "outputs": [],
      "stateMutability": "nonpayable",
      "type": "function"
    },
    {
      "inputs": [
        {
          "internalType": "uint256",
          "name": "_ownershipTermLength",
          "type": "uint256"
        }
      ],
      "name": "setOwnershipTermLength",
      "outputs": [],
      "stateMutability": "nonpayable",
      "type": "function"
    },
    {
      "inputs": [
        {
          "internalType": "address payable",
          "name": "_platform",
          "type": "address"
        }
      ],
      "name": "setPlatform",
      "outputs": [],
      "stateMutability": "nonpayable",
      "type": "function"
    },
    {
      "inputs": [
        {
          "internalType": "bytes4",
          "name": "interfaceId",
          "type": "bytes4"
        }
      ],
      "name": "supportsInterface",
      "outputs": [
        {
          "internalType": "bool",
          "name": "",
          "type": "bool"
        }
      ],
      "stateMutability": "view",
      "type": "function"
    },
    {
      "inputs": [],
      "name": "symbol",
      "outputs": [
        {
          "internalType": "string",
          "name": "",
          "type": "string"
        }
      ],
      "stateMutability": "view",
      "type": "function"
    },
    {
      "inputs": [
        {
          "internalType": "uint256",
          "name": "",
          "type": "uint256"
        }
      ],
      "name": "tokenIdToHashtag",
      "outputs": [
        {
          "internalType": "address",
          "name": "originalPublisher",
          "type": "address"
        },
        {
          "internalType": "address",
          "name": "creator",
          "type": "address"
        },
        {
          "internalType": "string",
          "name": "displayVersion",
          "type": "string"
        }
      ],
      "stateMutability": "view",
      "type": "function"
    },
    {
      "inputs": [
        {
          "internalType": "uint256",
          "name": "",
          "type": "uint256"
        }
      ],
      "name": "tokenIdToLastTransferTime",
      "outputs": [
        {
          "internalType": "uint256",
          "name": "",
          "type": "uint256"
        }
      ],
      "stateMutability": "view",
      "type": "function"
    },
    {
      "inputs": [],
      "name": "tokenPointer",
      "outputs": [
        {
          "internalType": "uint256",
          "name": "",
          "type": "uint256"
        }
      ],
      "stateMutability": "view",
      "type": "function"
    },
    {
      "inputs": [
        {
          "internalType": "uint256",
          "name": "_tokenId",
          "type": "uint256"
        }
      ],
      "name": "tokenURI",
      "outputs": [
        {
          "internalType": "string",
          "name": "",
          "type": "string"
        }
      ],
      "stateMutability": "view",
      "type": "function"
    },
    {
      "inputs": [
        {
          "internalType": "address",
          "name": "_from",
          "type": "address"
        },
        {
          "internalType": "address",
          "name": "_to",
          "type": "address"
        },
        {
          "internalType": "uint256",
          "name": "_tokenId",
          "type": "uint256"
        }
      ],
      "name": "transferFrom",
      "outputs": [],
      "stateMutability": "nonpayable",
      "type": "function"
    },
    {
      "inputs": [
        {
          "internalType": "contract HashtagAccessControls",
          "name": "_accessControls",
          "type": "address"
        }
      ],
      "name": "updateAccessControls",
      "outputs": [],
      "stateMutability": "nonpayable",
      "type": "function"
    }
  ],
  "transactionHash": "0x9fb17b7faa84480c4cc89a0b0e316d5a0aa241eb0a38d455fd9dc537c9a87e87",
  "args": [
    "0x5FbDB2315678afecb367f032d93F642f64180aa3",
    "0x3C44CdDdB6a900fa2b585dd299e03d12FA4293BC"
  ],
  "solcInputHash": "c7aa0bd4516b4333bedbd57f1e818bb0",
  "bytecode": "0x60c0604052601060808190526f12185cda1d1859c8141c9bdd1bd8dbdb60821b60a0908152620000339160019190620001e6565b50604080518082019091526007808252664841534854414760c81b60209092019182526200006491600291620001e6565b506303c267006003556040805180820190915260208082527f68747470733a2f2f6170692e686173687461672d70726f746f636f6c2e696f2f918101918252620000b191600891620001e6565b506020600e55348015620000c457600080fd5b5060405162002d8a38038062002d8a83398181016040526040811015620000ea57600080fd5b508051602090910151620001056301ffc9a760e01b62000161565b600f80546001600160a01b038085166001600160a01b031992831617909255600d805492841692909116919091179055620001476380ac58cd60e01b62000161565b62000159635b5e139f60e01b62000161565b505062000282565b6001600160e01b03198082161415620001c1576040805162461bcd60e51b815260206004820152601c60248201527f4552433136353a20696e76616c696420696e7465726661636520696400000000604482015290519081900360640190fd5b6001600160e01b0319166000908152602081905260409020805460ff19166001179055565b828054600181600116156101000203166002900490600052602060002090601f016020900481019282601f106200022957805160ff191683800117855562000259565b8280016001018555821562000259579182015b82811115620002595782518255916020019190600101906200023c565b50620002679291506200026b565b5090565b5b808211156200026757600081556001016200026c565b612af880620002926000396000f3fe6080604052600436106101f95760003560e01c806370a082311161010d578063a30b4db9116100a0578063d977a6531161006f578063d977a653146108c4578063db7af5fb14610975578063e2e982c81461098a578063e985e9c514610a4c578063f66e762314610a87576101f9565b8063a30b4db9146107ab578063b88d4fde146107d5578063c87b56dd14610870578063d5f053fa1461089a576101f9565b8063878327ab116100dc578063878327ab146106d857806390b467ea1461073157806395d89b411461075b578063a22cb46514610770576101f9565b806370a08231146105fc578063748365ef1461062f578063795cd9d0146106445780637e6d945e14610659576101f9565b80634177a5881161019057806355f804b31161015f57806355f804b3146104a65780636352211e146105575780636945c5ea146105815780636c0360eb146105b45780636ef3da94146105c9576101f9565b80634177a588146103fa57806342842e0e146104245780634bde38c8146104675780634f558e791461047c576101f9565b8063095ea7b3116101cc578063095ea7b31461033d57806323b872dd146103785780632c32eb7d146103bb57806332da3526146103d0576101f9565b806301ffc9a7146101fe578063028316511461024657806306fdde031461026d578063081812fc146102f7575b600080fd5b34801561020a57600080fd5b506102326004803603602081101561022157600080fd5b50356001600160e01b031916610ab1565b604080519115158252519081900360200190f35b34801561025257600080fd5b5061025b610ad4565b60408051918252519081900360200190f35b34801561027957600080fd5b50610282610ada565b6040805160208082528351818301528351919283929083019185019080838360005b838110156102bc5781810151838201526020016102a4565b50505050905090810190601f1680156102e95780820380516001836020036101000a031916815260200191505b509250505060405180910390f35b34801561030357600080fd5b506103216004803603602081101561031a57600080fd5b5035610b67565b604080516001600160a01b039092168252519081900360200190f35b34801561034957600080fd5b506103766004803603604081101561036057600080fd5b506001600160a01b038135169060200135610b82565b005b34801561038457600080fd5b506103766004803603606081101561039b57600080fd5b506001600160a01b03813581169160208101359091169060400135610c67565b3480156103c757600080fd5b5061025b610f52565b3480156103dc57600080fd5b50610376600480360360208110156103f357600080fd5b5035610f57565b34801561040657600080fd5b506103766004803603602081101561041d57600080fd5b50356110d0565b34801561043057600080fd5b506103766004803603606081101561044757600080fd5b506001600160a01b0381358116916020810135909116906040013561119f565b34801561047357600080fd5b506103216112cc565b34801561048857600080fd5b506102326004803603602081101561049f57600080fd5b50356112db565b3480156104b257600080fd5b50610376600480360360208110156104c957600080fd5b810190602081018135600160201b8111156104e357600080fd5b8201836020820111156104f557600080fd5b803590602001918460018302840111600160201b8311171561051657600080fd5b91908080601f0160208091040260200160405190810160405280939291908181526020018383808284376000920191909152509295506112fb945050505050565b34801561056357600080fd5b506103216004803603602081101561057a57600080fd5b50356113dc565b34801561058d57600080fd5b50610376600480360360208110156105a457600080fd5b50356001600160a01b0316611488565b3480156105c057600080fd5b50610282611574565b3480156105d557600080fd5b50610376600480360360208110156105ec57600080fd5b50356001600160a01b03166115cf565b34801561060857600080fd5b5061025b6004803603602081101561061f57600080fd5b50356001600160a01b0316611700565b34801561063b57600080fd5b5061032161176d565b34801561065057600080fd5b5061025b61177c565b61025b6004803603606081101561066f57600080fd5b810190602081018135600160201b81111561068957600080fd5b82018360208201111561069b57600080fd5b803590602001918460018302840111600160201b831117156106bc57600080fd5b91935091506001600160a01b0381358116916020013516611782565b3480156106e457600080fd5b50610702600480360360208110156106fb57600080fd5b5035611a6a565b60405180836001600160a01b03168152602001826001600160a01b031681526020019250505060405180910390f35b34801561073d57600080fd5b5061025b6004803603602081101561075457600080fd5b5035611a8d565b34801561076757600080fd5b50610282611a9f565b34801561077c57600080fd5b506103766004803603604081101561079357600080fd5b506001600160a01b0381351690602001351515611af7565b3480156107b757600080fd5b50610321600480360360208110156107ce57600080fd5b5035611b8e565b3480156107e157600080fd5b50610376600480360360808110156107f857600080fd5b6001600160a01b03823581169260208101359091169160408201359190810190608081016060820135600160201b81111561083257600080fd5b82018360208201111561084457600080fd5b803590602001918460018302840111600160201b8311171561086557600080fd5b509092509050611bac565b34801561087c57600080fd5b506102826004803603602081101561089357600080fd5b5035611cfa565b3480156108a657600080fd5b50610376600480360360208110156108bd57600080fd5b5035611e30565b3480156108d057600080fd5b5061025b600480360360208110156108e757600080fd5b810190602081018135600160201b81111561090157600080fd5b82018360208201111561091357600080fd5b803590602001918460018302840111600160201b8311171561093457600080fd5b91908080601f016020809104026020016040519081016040528093929190818152602001838380828437600092019190915250929550611ef7945050505050565b34801561098157600080fd5b5061025b611f14565b34801561099657600080fd5b506109b4600480360360208110156109ad57600080fd5b5035611f1a565b60405180846001600160a01b03168152602001836001600160a01b0316815260200180602001828103825283818151815260200191508051906020019080838360005b83811015610a0f5781810151838201526020016109f7565b50505050905090810190601f168015610a3c5780820380516001836020036101000a031916815260200191505b5094505050505060405180910390f35b348015610a5857600080fd5b5061023260048036036040811015610a6f57600080fd5b506001600160a01b0381358116916020013516611fd4565b348015610a9357600080fd5b5061037660048036036020811015610aaa57600080fd5b5035612002565b6001600160e01b0319811660009081526020819052604090205460ff165b919050565b60095481565b60018054604080516020600284861615610100026000190190941693909304601f81018490048402820184019092528181529291830182828015610b5f5780601f10610b3457610100808354040283529160200191610b5f565b820191906000526020600020905b815481529060010190602001808311610b4257829003601f168201915b505050505081565b6000908152600560205260409020546001600160a01b031690565b6000610b8d826113dc565b9050806001600160a01b0316610ba161210e565b6001600160a01b03161480610bc25750610bc281610bbd61210e565b611fd4565b610c0b576040805162461bcd60e51b815260206004820152601560248201527422a9219b9918afa4a72b20a624a22fa9a2a72222a960591b604482015290519081900360640190fd5b60008281526005602052604080822080546001600160a01b0319166001600160a01b0387811691821790925591518593918516917f8c5be1e5ebec7d5bd14f71427d1e84f3dd0314c0f7b2291e5b200ac8c7c3b92591a4505050565b6001600160a01b038216610cbb576040805162461bcd60e51b81526020600482015260166024820152754552433732315f5a45524f5f544f5f4144445245535360501b604482015290519081900360640190fd5b600d546001600160a01b0383811691161415610d085760405162461bcd60e51b81526004018080602001828103825260228152602001806129156022913960400191505060405180910390fd5b6000610d13826113dc565b9050806001600160a01b0316846001600160a01b031614610d73576040805162461bcd60e51b815260206004820152601560248201527408aa4866e6462be9eae9c8aa4be9a92a69a82a8869605b1b604482015290519081900360640190fd5b6000610d7d61210e565b90506000610d8a84610b67565b600d549091506001600160a01b0384811691161415610eb357826001600160a01b0316826001600160a01b03161480610e385750600f5460408051631a39845960e11b81526001600160a01b0385811660048301529151919092169163347308b2916024808301926020929190829003018186803b158015610e0b57600080fd5b505afa158015610e1f573d6000803e3d6000fd5b505050506040513d6020811015610e3557600080fd5b50515b80610e485750610e488383611fd4565b80610e645750816001600160a01b0316816001600160a01b0316145b610eae576040805162461bcd60e51b815260206004820152601660248201527522a9219b9918afa4a72b20a624a22fa9a822a72222a960511b604482015290519081900360640190fd5b610f3e565b826001600160a01b0316826001600160a01b03161480610ed85750610ed88383611fd4565b80610ef45750816001600160a01b0316816001600160a01b0316145b610f3e576040805162461bcd60e51b815260206004820152601660248201527522a9219b9918afa4a72b20a624a22fa9a822a72222a960511b604482015290519081900360640190fd5b610f4a84828789612112565b505050505050565b600381565b610f60816112db565b610fb1576040805162461bcd60e51b815260206004820181905260248201527f72656379636c65486173687461673a20496e76616c696420746f6b656e204944604482015290519081900360640190fd5b600d546001600160a01b0316610fc6826113dc565b6001600160a01b0316141561100c5760405162461bcd60e51b815260040180806020018281038252602d815260200180612937602d913960400191505060405180910390fd5b6000818152600c6020526040902054600354429061102b908390612260565b106110675760405162461bcd60e51b8152600401808060200182810382526034815260200180612a3f6034913960400191505060405180910390fd5b61108e8261107484610b67565b600d546001600160a01b0316611089866113dc565b612112565b61109661210e565b6001600160a01b0316827ff55b71188745682e3ad8eb1b41aec0980f6f59e48efa8475a1ce8e6d953daa9c60405160405180910390a35050565b600f546001600160a01b03166324d7806c6110e961210e565b6040518263ffffffff1660e01b815260040180826001600160a01b0316815260200191505060206040518083038186803b15801561112657600080fd5b505afa15801561113a573d6000803e3d6000fd5b505050506040513d602081101561115057600080fd5b505161119a576040805162461bcd60e51b815260206004820152601460248201527321b0b63632b91036bab9ba1031329030b236b4b760611b604482015290519081900360640190fd5b600e55565b6111aa838383610c67565b813b80156112c6576000836001600160a01b031663150b7a026111cb61210e565b87866040518463ffffffff1660e01b815260040180846001600160a01b03168152602001836001600160a01b0316815260200182815260200180602001828103825260008152602001602001945050505050602060405180830381600087803b15801561123757600080fd5b505af115801561124b573d6000803e3d6000fd5b505050506040513d602081101561126157600080fd5b505190506001600160e01b03198116630a85bd0160e11b146112c4576040805162461bcd60e51b815260206004820152601760248201527622a9219b9918afa4a72b20a624a22fa9a2a622a1aa27a960491b604482015290519081900360640190fd5b505b50505050565b600d546001600160a01b031681565b6000908152600a60205260409020600101546001600160a01b0316151590565b600f546001600160a01b03166324d7806c61131461210e565b6040518263ffffffff1660e01b815260040180826001600160a01b0316815260200191505060206040518083038186803b15801561135157600080fd5b505afa158015611365573d6000803e3d6000fd5b505050506040513d602081101561137b57600080fd5b50516113c5576040805162461bcd60e51b815260206004820152601460248201527321b0b63632b91036bab9ba1031329030b236b4b760611b604482015290519081900360640190fd5b80516113d8906008906020840190612857565b5050565b6000818152600460205260408120546001600160a01b03168015801561141b57506000838152600a60205260409020600101546001600160a01b031615155b15611433575050600d546001600160a01b0316610acf565b6001600160a01b038116611482576040805162461bcd60e51b815260206004820152601160248201527022a9219b9918afad22a927afa7aba722a960791b604482015290519081900360640190fd5b92915050565b600f546001600160a01b03166324d7806c6114a161210e565b6040518263ffffffff1660e01b815260040180826001600160a01b0316815260200191505060206040518083038186803b1580156114de57600080fd5b505afa1580156114f2573d6000803e3d6000fd5b505050506040513d602081101561150857600080fd5b5051611552576040805162461bcd60e51b815260206004820152601460248201527321b0b63632b91036bab9ba1031329030b236b4b760611b604482015290519081900360640190fd5b600d80546001600160a01b0319166001600160a01b0392909216919091179055565b6008805460408051602060026001851615610100026000190190941693909304601f81018490048402820184019092528181529291830182828015610b5f5780601f10610b3457610100808354040283529160200191610b5f565b600f546001600160a01b03166324d7806c6115e861210e565b6040518263ffffffff1660e01b815260040180826001600160a01b0316815260200191505060206040518083038186803b15801561162557600080fd5b505afa158015611639573d6000803e3d6000fd5b505050506040513d602081101561164f57600080fd5b5051611699576040805162461bcd60e51b815260206004820152601460248201527321b0b63632b91036bab9ba1031329030b236b4b760611b604482015290519081900360640190fd5b6001600160a01b0381166116de5760405162461bcd60e51b81526004018080602001828103825260348152602001806129c66034913960400191505060405180910390fd5b600f80546001600160a01b0319166001600160a01b0392909216919091179055565b60006001600160a01b038216611751576040805162461bcd60e51b815260206004820152601160248201527022a9219b9918afad22a927afa7aba722a960791b604482015290519081900360640190fd5b506001600160a01b031660009081526006602052604090205490565b600f546001600160a01b031681565b600e5481565b600f5460408051630830b35960e31b81526001600160a01b038581166004830152915160009392909216916341859ac891602480820192602092909190829003018186803b1580156117d357600080fd5b505afa1580156117e7573d6000803e3d6000fd5b505050506040513d60208110156117fd57600080fd5b505161183a5760405162461bcd60e51b815260040180806020018281038252602781526020018061299f6027913960400191505060405180910390fd5b606061187b86868080601f0160208091040260200160405190810160405280939291908181526020018383808284376000920191909152506122c192505050565b60095490915061188c906001612260565b6009819055604080516060810182526001600160a01b03808816825286166020808301919091528251601f8a0182900482028101820184528981529192830191908a908a90819084018382808284376000920182905250939094525050838152600a6020908152604091829020845181546001600160a01b039182166001600160a01b0319918216178355868401516001840180549190931691161790559184015180519293506119469260028501929190910190612857565b5090505080600b836040518082805190602001908083835b6020831061197d5780518252601f19909201916020918201910161195e565b51815160209384036101000a6000190180199092169116179052920194855250604051938490030183209390935550600d548392506001600160a01b0316906000907fddf252ad1be2c89b69c2b068fc378daa952ba7f163c4a11628f55a4df523b3ef908290a4846001600160a01b0316817f5f85fda711aa96abf7ad634949eccb4f5086cb03f4b9c731c8e584e22cfe252f8989886040518080602001836001600160a01b031681526020018281038252858582818152602001925080828437600083820152604051601f909101601f1916909201829003965090945050505050a39695505050505050565b600d5460009081906001600160a01b0316611a84846113dc565b91509150915091565b600c6020526000908152604090205481565b6002805460408051602060018416156101000260001901909316849004601f81018490048402820184019092528181529291830182828015610b5f5780601f10610b3457610100808354040283529160200191610b5f565b8060076000611b0461210e565b6001600160a01b03908116825260208083019390935260409182016000908120918716808252919093529120805460ff191692151592909217909155611b4861210e565b6001600160a01b03167f17307eab39ab6107e8899845ad3d59bd9653f200f220920489ca2b5937696c318360405180821515815260200191505060405180910390a35050565b6000908152600a60205260409020600101546001600160a01b031690565b611bb7858585610c67565b833b8015610f4a576000856001600160a01b031663150b7a02611bd861210e565b898888886040518663ffffffff1660e01b815260040180866001600160a01b03168152602001856001600160a01b03168152602001848152602001806020018281038252848482818152602001925080828437600081840152601f19601f8201169050808301925050509650505050505050602060405180830381600087803b158015611c6457600080fd5b505af1158015611c78573d6000803e3d6000fd5b505050506040513d6020811015611c8e57600080fd5b505190506001600160e01b03198116630a85bd0160e11b14611cf1576040805162461bcd60e51b815260206004820152601760248201527622a9219b9918afa4a72b20a624a22fa9a2a622a1aa27a960491b604482015290519081900360640190fd5b50505050505050565b6000818152600a60205260409020600101546060906001600160a01b0316611d5f576040805162461bcd60e51b8152602060048201526013602482015272151bdad95b881251081b5d5cdd08195e1a5cdd606a1b604482015290519081900360640190fd5b6008611d6a836125e9565b6040516020018083805460018160011615610100020316600290048015611dc85780601f10611da6576101008083540402835291820191611dc8565b820191906000526020600020905b815481529060010190602001808311611db4575b5050825160208401908083835b60208310611df45780518252601f199092019160209182019101611dd5565b6001836020036101000a038019825116818451168082178552505050505050905001925050506040516020818303038152906040529050919050565b611e39816113dc565b6001600160a01b0316611e4a61210e565b6001600160a01b031614611ea5576040805162461bcd60e51b815260206004820152601c60248201527f72656e6577486173687461673a20496e76616c69642073656e64657200000000604482015290519081900360640190fd5b6000818152600c60205260409020429055611ebe61210e565b6001600160a01b0316817f4b3fb07ae9201b1778414739d2679d5d30b131b54a4e712c83e4de60e872630060405160405180910390a350565b8051602081830181018051600b8252928201919093012091525481565b60035481565b600a6020908152600091825260409182902080546001808301546002808501805488516101009582161595909502600019011691909104601f81018790048702840187019097528683526001600160a01b0393841696939091169491929091830182828015611fca5780601f10611f9f57610100808354040283529160200191611fca565b820191906000526020600020905b815481529060010190602001808311611fad57829003601f168201915b5050505050905083565b6001600160a01b03918216600090815260076020908152604080832093909416825291909152205460ff1690565b600f546001600160a01b03166324d7806c61201b61210e565b6040518263ffffffff1660e01b815260040180826001600160a01b0316815260200191505060206040518083038186803b15801561205857600080fd5b505afa15801561206c573d6000803e3d6000fd5b505050506040513d602081101561208257600080fd5b50516120cc576040805162461bcd60e51b815260206004820152601460248201527321b0b63632b91036bab9ba1031329030b236b4b760611b604482015290519081900360640190fd5b600354604080519182526020820183905280517f7550fd28481dfa2a7590562881c3fffa398e97624ad6eeae494cf36c51e2a9069281900390910190a1600355565b3390565b6001600160a01b0383161561213e57600084815260056020526040902080546001600160a01b03191690555b600084815260046020526040902080546001600160a01b0319166001600160a01b0384811691909117909155600d548116908216146121b5576001600160a01b03811660009081526006602052604090205461219b9060016126c4565b6001600160a01b0382166000908152600660205260409020555b6000848152600c60205260409020429055600d546001600160a01b03838116911614612219576001600160a01b0382166000908152600660205260409020546121ff906001612260565b6001600160a01b0383166000908152600660205260409020555b83826001600160a01b0316826001600160a01b03167fddf252ad1be2c89b69c2b068fc378daa952ba7f163c4a11628f55a4df523b3ef60405160405180910390a450505050565b6000828201838110156122ba576040805162461bcd60e51b815260206004820152601b60248201527f536166654d6174683a206164646974696f6e206f766572666c6f770000000000604482015290519081900360640190fd5b9392505050565b60608082905060038151101580156122dc5750600e54815111155b6123175760405162461bcd60e51b815260040180806020018281038252603b815260200180612964603b913960400191505060405180910390fd5b8060008151811061232457fe5b6020910101516001600160f81b031916602360f81b1461237f576040805162461bcd60e51b81526020600482015260116024820152704d7573742073746172742077697468202360781b604482015290519081900360640190fd5b606061238a84612721565b9050600b816040518082805190602001908083835b602083106123be5780518252601f19909201916020918201910161239f565b51815160209384036101000a600019018019909216911617905292019485525060405193849003019092205415915061242a90505760405162461bcd60e51b815260040180806020018281038252602a8152602001806128eb602a913960400191505060405180910390fd5b600060015b83518110156125a057600084828151811061244657fe5b01602001516001600160f81b03191690506000600360fc1b821080159061247b5750603960f81b6001600160f81b0319831611155b1580156124b15750604160f81b6001600160f81b03198316108015906124af5750602d60f91b6001600160f81b0319831611155b155b80156124e65750606160f81b6001600160f81b03198316108015906124e45750603d60f91b6001600160f81b0319831611155b155b905080156125255760405162461bcd60e51b8152600401808060200182810382526050815260200180612a736050913960600191505060405180910390fd5b604160f81b6001600160f81b03198316108015906125515750602d60f91b6001600160f81b0319831611155b806125835750606160f81b6001600160f81b03198316108015906125835750603d60f91b6001600160f81b0319831611155b1561259657612593846001612260565b93505b505060010161242f565b5060018110156125e15760405162461bcd60e51b81526004018080602001828103825260458152602001806129fa6045913960600191505060405180910390fd5b509392505050565b60608161260e57506040805180820190915260018152600360fc1b6020820152610acf565b8160005b811561262657600101600a82049150612612565b60608167ffffffffffffffff8111801561263f57600080fd5b506040519080825280601f01601f19166020018201604052801561266a576020820181803683370190505b50859350905060001982015b83156126bb57600a840660300160f81b8282806001900393508151811061269957fe5b60200101906001600160f81b031916908160001a905350600a84049350612676565b50949350505050565b60008282111561271b576040805162461bcd60e51b815260206004820152601e60248201527f536166654d6174683a207375627472616374696f6e206f766572666c6f770000604482015290519081900360640190fd5b50900390565b6060808290506060815167ffffffffffffffff8111801561274157600080fd5b506040519080825280601f01601f19166020018201604052801561276c576020820181803683370190505b50905060005b82518110156125e157604160f81b83828151811061278c57fe5b01602001516001600160f81b031916108015906127c75750605a60f81b8382815181106127b557fe5b01602001516001600160f81b03191611155b15612814578281815181106127d857fe5b602001015160f81c60f81b60f81c60200160f81b8282815181106127f857fe5b60200101906001600160f81b031916908160001a90535061284f565b82818151811061282057fe5b602001015160f81c60f81b82828151811061283757fe5b60200101906001600160f81b031916908160001a9053505b600101612772565b828054600181600116156101000203166002900490600052602060002090601f016020900481019282601f1061289857805160ff19168380011785556128c5565b828001600101855582156128c5579182015b828111156128c55782518255916020019190600101906128aa565b506128d19291506128d5565b5090565b5b808211156128d157600081556001016128d656fe486173687461672076616c69646174696f6e3a204861736874616720616c7265616479206f776e65642e4552433732315f43414e4e4f545f5452414e534645525f544f5f504c4154464f524d72656379636c65486173687461673a20416c7265616479206f776e65642062792074686520706c6174666f726d496e76616c696420666f726d61743a2048617368746167206d757374206e6f7420657863656564206c656e67746820726571756972656d656e74734d696e743a20546865207075626c6973686572206d7573742062652077686974656c69737465644861736874616750726f746f636f6c2e757064617465416363657373436f6e74726f6c733a2043616e6e6f74206265207a65726f496e76616c696420666f726d61743a2048617368746167206d75737420636f6e7461696e206174206c65617374203120616c7068616265746963206368617261637465722e72656379636c65486173687461673a20546f6b656e206e6f7420656c696769626c6520666f722072656379636c696e6720796574496e76616c69642063686172616374657220666f756e643a2048617368746167206d6179206f6e6c7920636f6e7461696e206368617261637465727320412d5a2c20612d7a2c20302d3920616e642023a2646970667358221220888f19ebe74618916379e8bf9611d48edb04e3a003f2fd258b428ebef9b092b164736f6c634300060c0033",
  "devdoc": {
    "author": "Hashtag Protocol",
    "kind": "dev",
    "methods": {
      "approve(address,uint256)": {
        "details": "The zero address indicates there is no approved address.      Throws unless `msg.sender` is the current NFT owner, or an authorized      operator of the current owner.",
        "params": {
          "_approved": "The new approved NFT controller",
          "_tokenId": "The NFT to approve"
        }
      },
      "balanceOf(address)": {
        "details": "NFTs assigned to the zero address are considered invalid, and this      function throws for queries about the zero address.",
        "params": {
          "_owner": "An address for whom to query the balance"
        },
        "returns": {
          "_0": "The number of NFTs owned by `_owner`, possibly zero"
        }
      },
      "constructor": {
        "params": {
          "_accessControls": "core contract for managing access and roles",
          "_platform": "address of the Hashtag protocol core account"
        }
      },
      "exists(uint256)": {
        "params": {
          "_tokenId": "token ID"
        },
        "returns": {
          "_0": "true if exists"
        }
      },
      "getApproved(uint256)": {
        "details": "Throws if `_tokenId` is not a valid NFT.",
        "params": {
          "_tokenId": "The NFT to find the approved address for"
        },
        "returns": {
          "_0": "The approved address for this NFT, or the zero address if there is none"
        }
      },
      "getCreatorAddress(uint256)": {
        "params": {
          "_tokenId": "ID of a hashtag"
        },
        "returns": {
          "_creator": "creator of the hashtag"
        }
      },
      "getPaymentAddresses(uint256)": {
        "params": {
          "_tokenId": "ID of a hashtag"
        },
        "returns": {
          "_owner": "Address of the owner of the hashtag",
          "_platform": "Platform commission address"
        }
      },
      "isApprovedForAll(address,address)": {
        "params": {
          "_operator": "The address that acts on behalf of the owner",
          "_owner": "The address that owns the NFTs"
        },
        "returns": {
          "_0": "True if `_operator` is an approved operator for `_owner`, false otherwise"
        }
      },
      "mint(string,address,address)": {
        "params": {
          "_creator": "Address of the account to be attributed with creation",
          "_hashtag": "String version of the hashtag to mint",
          "_publisher": "Address of the publisher through which the hashtag is being created"
        },
        "returns": {
          "_tokenId": "ID of the new hashtag"
        }
      },
      "ownerOf(uint256)": {
        "details": "NFTs assigned to zero address are considered invalid, and queries      about them do throw.",
        "params": {
          "_tokenId": "The identifier for an NFT"
        },
        "returns": {
          "_0": "The address of the owner of the NFT"
        }
      },
      "recycleHashtag(uint256)": {
        "details": "Token must exist, be not already be owned by platform and time of TX must be greater than lastTransferTime",
        "params": {
          "_tokenId": "The identifier for the hashtag being recycled"
        }
      },
      "renewHashtag(uint256)": {
        "details": "Can only be called by token owner",
        "params": {
          "_tokenId": "The identifier for an NFT"
        }
      },
      "safeTransferFrom(address,address,uint256)": {
        "details": "This works identically to the other function with an extra data parameter,      except this function just sets data to \"\".",
        "params": {
          "_from": "The current owner of the NFT",
          "_to": "The new owner",
          "_tokenId": "The NFT to transfer"
        }
      },
      "safeTransferFrom(address,address,uint256,bytes)": {
        "details": "Throws unless `msg.sender` is the current owner, an authorized      operator, or the approved address for this NFT. Throws if `_from` is      not the current owner. Throws if `_to` is the zero address. Throws if      `_tokenId` is not a valid NFT. When transfer is complete, this function      checks if `_to` is a smart contract (code size > 0). If so, it calls      `onERC721Received` on `_to` and throws if the return value is not      `bytes4(keccak256(\"onERC721Received(address,address,uint256,bytes)\"))`.",
        "params": {
          "_data": "Additional data with no specified format, sent in call to `_to`",
          "_from": "The current owner of the NFT",
          "_to": "The new owner",
          "_tokenId": "The NFT to transfer"
        }
      },
      "setApprovalForAll(address,bool)": {
        "details": "Emits the ApprovalForAll event. The contract MUST allow      multiple operators per owner.",
        "params": {
          "_approved": "True if the operator is approved, false to revoke approval",
          "_operator": "Address to add to the set of authorized operators"
        }
      },
      "setBaseURI(string)": {
        "params": {
          "_baseURI": "Base URI for all tokens"
        }
      },
      "setHashtagMaxStringLength(uint256)": {
        "params": {
          "_hashtagMaxStringLength": "max length"
        }
      },
      "setOwnershipTermLength(uint256)": {
        "params": {
          "_ownershipTermLength": "New length in unix epoch seconds"
        }
      },
      "setPlatform(address)": {
        "params": {
          "_platform": "Address that receives minted NFTs"
        }
      },
      "supportsInterface(bytes4)": {
        "details": "See {IERC165-supportsInterface}. Time complexity O(1), guaranteed to always use less than 30 000 gas."
      },
      "tokenURI(uint256)": {
        "params": {
          "_tokenId": "token ID"
        },
        "returns": {
          "_0": "token URI of the token, if exists"
        }
      },
      "transferFrom(address,address,uint256)": {
        "details": "Throws unless `msg.sender` is the current owner, an authorized      operator, or the approved address for this NFT. Throws if `_from` is      not the current owner. Throws if `_to` is the zero address. Throws if      `_tokenId` is not a valid NFT.",
        "params": {
          "_from": "The current owner of the NFT",
          "_to": "The new owner",
          "_tokenId": "The NFT to transfer"
        }
      },
      "updateAccessControls(address)": {
        "params": {
          "_accessControls": "Address of the access controls contract"
        }
      }
    },
    "title": "Hashtag Protocol contract",
    "version": 1
  },
  "userdoc": {
    "kind": "user",
    "methods": {
      "accessControls()": {
        "notice": "access controls smart contract"
      },
      "approve(address,uint256)": {
        "notice": "Change or reaffirm the approved address for an NFT"
      },
      "balanceOf(address)": {
        "notice": "Count all NFTs assigned to an owner"
      },
      "baseURI()": {
        "notice": "baseURI for looking up up tokenURI for a token"
      },
      "constructor": "Constructs the smart contract with access controls and platform address",
      "exists(uint256)": {
        "notice": "Existence check on a token"
      },
      "getApproved(uint256)": {
        "notice": "Get the approved address for a single NFT"
      },
      "getCreatorAddress(uint256)": {
        "notice": "Returns creator of a token"
      },
      "getPaymentAddresses(uint256)": {
        "notice": "Returns the commission addresses related to a token"
      },
      "hashtagMaxStringLength()": {
        "notice": "maximum hashtag length"
      },
      "hashtagMinStringLength()": {
        "notice": "minimum hashtag length"
      },
      "hashtagToTokenId(string)": {
        "notice": "lookup of (lowercase) Hashtag string to token ID"
      },
      "isApprovedForAll(address,address)": {
        "notice": "Query if an address is an authorized operator for another address"
      },
      "mint(string,address,address)": {
        "notice": "Method that a publisher can call to create a hashtag"
      },
      "name()": {
        "notice": "Token name"
      },
      "ownerOf(uint256)": {
        "notice": "Find the owner of an NFT"
      },
      "ownershipTermLength()": {
        "notice": "minimum time in seconds that a hashtag is owned"
      },
      "platform()": {
        "notice": "core Hashtag protocol account"
      },
      "recycleHashtag(uint256)": {
        "notice": "Recycling a hashtag i.e. transferring ownership back to the platform due to stale ownership"
      },
      "renewHashtag(uint256)": {
        "notice": "Renews a hash tag by setting its last transfer time to be now"
      },
      "safeTransferFrom(address,address,uint256)": {
        "notice": "Transfers the ownership of an NFT from one address to another address"
      },
      "safeTransferFrom(address,address,uint256,bytes)": {
        "notice": "Transfers the ownership of an NFT from one address to another address"
      },
      "setApprovalForAll(address,bool)": {
        "notice": "Enable or disable approval for a third party (\"operator\") to manage         all of `msg.sender`'s assets"
      },
      "setBaseURI(string)": {
        "notice": "Admin method for updating the base token URI of a hashtag"
      },
      "setHashtagMaxStringLength(uint256)": {
        "notice": "Admin method for updating the max string length of a hashtag"
      },
      "setOwnershipTermLength(uint256)": {
        "notice": "Admin method for updating the ownership length for all hashtag tokens i.e. a global param"
      },
      "setPlatform(address)": {
        "notice": "Admin functionality for updating the address that receives the commission on behalf of the platform"
      },
      "symbol()": {
        "notice": "Token symbol"
      },
      "tokenIdToHashtag(uint256)": {
        "notice": "lookup of Hashtag info from token ID"
      },
      "tokenIdToLastTransferTime(uint256)": {
        "notice": "Last time a token was interacted with"
      },
      "tokenPointer()": {
        "notice": "current tip of the hashtag tokens (and total supply) as minted consecutively"
      },
      "tokenURI(uint256)": {
        "notice": "token URI for a token"
      },
      "transferFrom(address,address,uint256)": {
        "notice": "Transfer ownership of an NFT -- THE CALLER IS RESPONSIBLE         TO CONFIRM THAT `_to` IS CAPABLE OF RECEIVING NFTS OR ELSE         THEY MAY BE PERMANENTLY LOST"
      },
      "updateAccessControls(address)": {
        "notice": "Admin functionality for updating the access controls"
      }
    },
    "notice": "Core smart contract of the protocol that governs the creation of hashtag tokens",
    "version": 1
  },
  "storageLayout": {
    "storage": [
      {
        "astId": 299,
        "contract": "contracts/HashtagProtocol.sol:HashtagProtocol",
        "label": "_supportedInterfaces",
        "offset": 0,
        "slot": "0",
        "type": "t_mapping(t_bytes4,t_bool)"
      },
      {
        "astId": 4226,
        "contract": "contracts/HashtagProtocol.sol:HashtagProtocol",
        "label": "name",
        "offset": 0,
        "slot": "1",
        "type": "t_string_storage"
      },
      {
        "astId": 4230,
        "contract": "contracts/HashtagProtocol.sol:HashtagProtocol",
        "label": "symbol",
        "offset": 0,
        "slot": "2",
        "type": "t_string_storage"
      },
      {
        "astId": 4234,
        "contract": "contracts/HashtagProtocol.sol:HashtagProtocol",
        "label": "ownershipTermLength",
        "offset": 0,
        "slot": "3",
        "type": "t_uint256"
      },
      {
        "astId": 4246,
        "contract": "contracts/HashtagProtocol.sol:HashtagProtocol",
        "label": "owners",
        "offset": 0,
        "slot": "4",
        "type": "t_mapping(t_uint256,t_address)"
      },
      {
        "astId": 4250,
        "contract": "contracts/HashtagProtocol.sol:HashtagProtocol",
        "label": "approvals",
        "offset": 0,
        "slot": "5",
        "type": "t_mapping(t_uint256,t_address)"
      },
      {
        "astId": 4254,
        "contract": "contracts/HashtagProtocol.sol:HashtagProtocol",
        "label": "balances",
        "offset": 0,
        "slot": "6",
        "type": "t_mapping(t_address,t_uint256)"
      },
      {
        "astId": 4260,
        "contract": "contracts/HashtagProtocol.sol:HashtagProtocol",
        "label": "operatorApprovals",
        "offset": 0,
        "slot": "7",
        "type": "t_mapping(t_address,t_mapping(t_address,t_bool))"
      },
      {
        "astId": 4264,
        "contract": "contracts/HashtagProtocol.sol:HashtagProtocol",
        "label": "baseURI",
        "offset": 0,
        "slot": "8",
        "type": "t_string_storage"
      },
      {
        "astId": 4274,
        "contract": "contracts/HashtagProtocol.sol:HashtagProtocol",
        "label": "tokenPointer",
        "offset": 0,
        "slot": "9",
        "type": "t_uint256"
      },
      {
        "astId": 4279,
        "contract": "contracts/HashtagProtocol.sol:HashtagProtocol",
        "label": "tokenIdToHashtag",
        "offset": 0,
        "slot": "10",
        "type": "t_mapping(t_uint256,t_struct(Hashtag)4271_storage)"
      },
      {
        "astId": 4284,
        "contract": "contracts/HashtagProtocol.sol:HashtagProtocol",
        "label": "hashtagToTokenId",
        "offset": 0,
        "slot": "11",
        "type": "t_mapping(t_string_memory_ptr,t_uint256)"
      },
      {
        "astId": 4289,
        "contract": "contracts/HashtagProtocol.sol:HashtagProtocol",
        "label": "tokenIdToLastTransferTime",
        "offset": 0,
        "slot": "12",
        "type": "t_mapping(t_uint256,t_uint256)"
      },
      {
        "astId": 4292,
        "contract": "contracts/HashtagProtocol.sol:HashtagProtocol",
        "label": "platform",
        "offset": 0,
        "slot": "13",
        "type": "t_address_payable"
      },
      {
        "astId": 4300,
        "contract": "contracts/HashtagProtocol.sol:HashtagProtocol",
        "label": "hashtagMaxStringLength",
        "offset": 0,
        "slot": "14",
        "type": "t_uint256"
      },
      {
        "astId": 4303,
        "contract": "contracts/HashtagProtocol.sol:HashtagProtocol",
        "label": "accessControls",
        "offset": 0,
        "slot": "15",
        "type": "t_contract(HashtagAccessControls)4162"
      }
    ],
    "types": {
      "t_address": {
        "encoding": "inplace",
        "label": "address",
        "numberOfBytes": "20"
      },
      "t_address_payable": {
        "encoding": "inplace",
        "label": "address payable",
        "numberOfBytes": "20"
      },
      "t_bool": {
        "encoding": "inplace",
        "label": "bool",
        "numberOfBytes": "1"
      },
      "t_bytes4": {
        "encoding": "inplace",
        "label": "bytes4",
        "numberOfBytes": "4"
      },
      "t_contract(HashtagAccessControls)4162": {
        "encoding": "inplace",
        "label": "contract HashtagAccessControls",
        "numberOfBytes": "20"
      },
      "t_mapping(t_address,t_bool)": {
        "encoding": "mapping",
        "key": "t_address",
        "label": "mapping(address => bool)",
        "numberOfBytes": "32",
        "value": "t_bool"
      },
      "t_mapping(t_address,t_mapping(t_address,t_bool))": {
        "encoding": "mapping",
        "key": "t_address",
        "label": "mapping(address => mapping(address => bool))",
        "numberOfBytes": "32",
        "value": "t_mapping(t_address,t_bool)"
      },
      "t_mapping(t_address,t_uint256)": {
        "encoding": "mapping",
        "key": "t_address",
        "label": "mapping(address => uint256)",
        "numberOfBytes": "32",
        "value": "t_uint256"
      },
      "t_mapping(t_bytes4,t_bool)": {
        "encoding": "mapping",
        "key": "t_bytes4",
        "label": "mapping(bytes4 => bool)",
        "numberOfBytes": "32",
        "value": "t_bool"
      },
      "t_mapping(t_string_memory_ptr,t_uint256)": {
        "encoding": "mapping",
        "key": "t_string_memory_ptr",
        "label": "mapping(string => uint256)",
        "numberOfBytes": "32",
        "value": "t_uint256"
      },
      "t_mapping(t_uint256,t_address)": {
        "encoding": "mapping",
        "key": "t_uint256",
        "label": "mapping(uint256 => address)",
        "numberOfBytes": "32",
        "value": "t_address"
      },
      "t_mapping(t_uint256,t_struct(Hashtag)4271_storage)": {
        "encoding": "mapping",
        "key": "t_uint256",
        "label": "mapping(uint256 => struct HashtagProtocol.Hashtag)",
        "numberOfBytes": "32",
        "value": "t_struct(Hashtag)4271_storage"
      },
      "t_mapping(t_uint256,t_uint256)": {
        "encoding": "mapping",
        "key": "t_uint256",
        "label": "mapping(uint256 => uint256)",
        "numberOfBytes": "32",
        "value": "t_uint256"
      },
      "t_string_memory_ptr": {
        "encoding": "bytes",
        "label": "string",
        "numberOfBytes": "32"
      },
      "t_string_storage": {
        "encoding": "bytes",
        "label": "string",
        "numberOfBytes": "32"
      },
      "t_struct(Hashtag)4271_storage": {
        "encoding": "inplace",
        "label": "struct HashtagProtocol.Hashtag",
        "members": [
          {
            "astId": 4266,
            "contract": "contracts/HashtagProtocol.sol:HashtagProtocol",
            "label": "originalPublisher",
            "offset": 0,
            "slot": "0",
            "type": "t_address"
          },
          {
            "astId": 4268,
            "contract": "contracts/HashtagProtocol.sol:HashtagProtocol",
            "label": "creator",
            "offset": 0,
            "slot": "1",
            "type": "t_address"
          },
          {
            "astId": 4270,
            "contract": "contracts/HashtagProtocol.sol:HashtagProtocol",
            "label": "displayVersion",
            "offset": 0,
            "slot": "2",
            "type": "t_string_storage"
          }
        ],
        "numberOfBytes": "96"
      },
      "t_uint256": {
        "encoding": "inplace",
        "label": "uint256",
        "numberOfBytes": "32"
      }
    }
  }
}