{
  "address": "0x5FbDB2315678afecb367f032d93F642f64180aa3",
  "abi": [
    {
      "inputs": [],
      "stateMutability": "nonpayable",
      "type": "constructor"
    },
    {
      "anonymous": false,
      "inputs": [
        {
          "indexed": true,
          "internalType": "bytes32",
          "name": "role",
          "type": "bytes32"
        },
        {
          "indexed": true,
          "internalType": "bytes32",
          "name": "previousAdminRole",
          "type": "bytes32"
        },
        {
          "indexed": true,
          "internalType": "bytes32",
          "name": "newAdminRole",
          "type": "bytes32"
        }
      ],
      "name": "RoleAdminChanged",
      "type": "event"
    },
    {
      "anonymous": false,
      "inputs": [
        {
          "indexed": true,
          "internalType": "bytes32",
          "name": "role",
          "type": "bytes32"
        },
        {
          "indexed": true,
          "internalType": "address",
          "name": "account",
          "type": "address"
        },
        {
          "indexed": true,
          "internalType": "address",
          "name": "sender",
          "type": "address"
        }
      ],
      "name": "RoleGranted",
      "type": "event"
    },
    {
      "anonymous": false,
      "inputs": [
        {
          "indexed": true,
          "internalType": "bytes32",
          "name": "role",
          "type": "bytes32"
        },
        {
          "indexed": true,
          "internalType": "address",
          "name": "account",
          "type": "address"
        },
        {
          "indexed": true,
          "internalType": "address",
          "name": "sender",
          "type": "address"
        }
      ],
      "name": "RoleRevoked",
      "type": "event"
    },
    {
      "inputs": [],
      "name": "DEFAULT_ADMIN_ROLE",
      "outputs": [
        {
          "internalType": "bytes32",
          "name": "",
          "type": "bytes32"
        }
      ],
      "stateMutability": "view",
      "type": "function"
    },
    {
      "inputs": [],
      "name": "PUBLISHER_ROLE",
      "outputs": [
        {
          "internalType": "bytes32",
          "name": "",
          "type": "bytes32"
        }
      ],
      "stateMutability": "view",
      "type": "function"
    },
    {
      "inputs": [],
      "name": "SMART_CONTRACT_ROLE",
      "outputs": [
        {
          "internalType": "bytes32",
          "name": "",
          "type": "bytes32"
        }
      ],
      "stateMutability": "view",
      "type": "function"
    },
    {
      "inputs": [
        {
          "internalType": "bytes32",
          "name": "role",
          "type": "bytes32"
        }
      ],
      "name": "getRoleAdmin",
      "outputs": [
        {
          "internalType": "bytes32",
          "name": "",
          "type": "bytes32"
        }
      ],
      "stateMutability": "view",
      "type": "function"
    },
    {
      "inputs": [
        {
          "internalType": "bytes32",
          "name": "role",
          "type": "bytes32"
        },
        {
          "internalType": "uint256",
          "name": "index",
          "type": "uint256"
        }
      ],
      "name": "getRoleMember",
      "outputs": [
        {
          "internalType": "address",
          "name": "",
          "type": "address"
        }
      ],
      "stateMutability": "view",
      "type": "function"
    },
    {
      "inputs": [
        {
          "internalType": "bytes32",
          "name": "role",
          "type": "bytes32"
        }
      ],
      "name": "getRoleMemberCount",
      "outputs": [
        {
          "internalType": "uint256",
          "name": "",
          "type": "uint256"
        }
      ],
      "stateMutability": "view",
      "type": "function"
    },
    {
      "inputs": [
        {
          "internalType": "bytes32",
          "name": "role",
          "type": "bytes32"
        },
        {
          "internalType": "address",
          "name": "account",
          "type": "address"
        }
      ],
      "name": "grantRole",
      "outputs": [],
      "stateMutability": "nonpayable",
      "type": "function"
    },
    {
      "inputs": [
        {
          "internalType": "bytes32",
          "name": "role",
          "type": "bytes32"
        },
        {
          "internalType": "address",
          "name": "account",
          "type": "address"
        }
      ],
      "name": "hasRole",
      "outputs": [
        {
          "internalType": "bool",
          "name": "",
          "type": "bool"
        }
      ],
      "stateMutability": "view",
      "type": "function"
    },
    {
      "inputs": [
        {
          "internalType": "address",
          "name": "_addr",
          "type": "address"
        }
      ],
      "name": "isAdmin",
      "outputs": [
        {
          "internalType": "bool",
          "name": "",
          "type": "bool"
        }
      ],
      "stateMutability": "view",
      "type": "function"
    },
    {
      "inputs": [
        {
          "internalType": "address",
          "name": "_addr",
          "type": "address"
        }
      ],
      "name": "isPublisher",
      "outputs": [
        {
          "internalType": "bool",
          "name": "",
          "type": "bool"
        }
      ],
      "stateMutability": "view",
      "type": "function"
    },
    {
      "inputs": [
        {
          "internalType": "address",
          "name": "_addr",
          "type": "address"
        }
      ],
      "name": "isSmartContract",
      "outputs": [
        {
          "internalType": "bool",
          "name": "",
          "type": "bool"
        }
      ],
      "stateMutability": "view",
      "type": "function"
    },
    {
      "inputs": [
        {
          "internalType": "bytes32",
          "name": "role",
          "type": "bytes32"
        },
        {
          "internalType": "address",
          "name": "account",
          "type": "address"
        }
      ],
      "name": "renounceRole",
      "outputs": [],
      "stateMutability": "nonpayable",
      "type": "function"
    },
    {
      "inputs": [
        {
          "internalType": "bytes32",
          "name": "role",
          "type": "bytes32"
        },
        {
          "internalType": "address",
          "name": "account",
          "type": "address"
        }
      ],
      "name": "revokeRole",
      "outputs": [],
      "stateMutability": "nonpayable",
      "type": "function"
    }
  ],
  "transactionHash": "0xf1a68b316db577392b77600fb9e79f58b3eea11e073c82f404306528cb8d9b0d",
  "args": [],
  "solcInputHash": "c7aa0bd4516b4333bedbd57f1e818bb0",
  "bytecode": "0x608060405234801561001057600080fd5b50610023600061001e610028565b61002c565b61012d565b3390565b610036828261003a565b5050565b60008281526020818152604090912061005c9183906104ef6100ad821b17901c565b1561003657610069610028565b6001600160a01b0316816001600160a01b0316837f2f8788117e7eff1d82e926ec794901d17c78024a50270940304540a733656f0d60405160405180910390a45050565b60006100c2836001600160a01b0384166100cb565b90505b92915050565b60006100d78383610115565b61010d575081546001818101845560008481526020808220909301849055845484825282860190935260409020919091556100c5565b5060006100c5565b60009081526001919091016020526040902054151590565b6108918061013c6000396000f3fe608060405234801561001057600080fd5b50600436106100cf5760003560e01c8063857d26081161008c578063a217fddf11610066578063a217fddf14610256578063ca15c8731461025e578063d547741f1461027b578063d8f4b6fd146102a7576100cf565b8063857d2608146101e35780639010d07c146101eb57806391d148541461022a576100cf565b8063248a9ca3146100d457806324d7806c146101035780632f2ff15d1461013d578063347308b21461016b57806336568abe1461019157806341859ac8146101bd575b600080fd5b6100f1600480360360208110156100ea57600080fd5b50356102af565b60408051918252519081900360200190f35b6101296004803603602081101561011957600080fd5b50356001600160a01b03166102c4565b604080519115158252519081900360200190f35b6101696004803603604081101561015357600080fd5b50803590602001356001600160a01b03166102d6565b005b6101296004803603602081101561018157600080fd5b50356001600160a01b0316610342565b610169600480360360408110156101a757600080fd5b50803590602001356001600160a01b031661036e565b610129600480360360208110156101d357600080fd5b50356001600160a01b03166103cf565b6100f16103fb565b61020e6004803603604081101561020157600080fd5b508035906020013561041f565b604080516001600160a01b039092168252519081900360200190f35b6101296004803603604081101561024057600080fd5b50803590602001356001600160a01b031661043e565b6100f1610456565b6100f16004803603602081101561027457600080fd5b503561045b565b6101696004803603604081101561029157600080fd5b50803590602001356001600160a01b0316610472565b6100f16104cb565b60009081526020819052604090206002015490565b60006102d0818361043e565b92915050565b6000828152602081905260409020600201546102f9906102f4610504565b61043e565b6103345760405162461bcd60e51b815260040180806020018281038252602f8152602001806107ce602f913960400191505060405180910390fd5b61033e8282610508565b5050565b60006102d07f5474431f81b75a7b45d74ffe5ff51964b4290ef4c86184accd4e4a9822dae9018361043e565b610376610504565b6001600160a01b0316816001600160a01b0316146103c55760405162461bcd60e51b815260040180806020018281038252602f81526020018061082d602f913960400191505060405180910390fd5b61033e8282610571565b60006102d07fad312f08b8889cfe65ec2f1faae419f8b47f0153a3483ea6130918c055c8183d8361043e565b7f5474431f81b75a7b45d74ffe5ff51964b4290ef4c86184accd4e4a9822dae90181565b600082815260208190526040812061043790836105da565b9392505050565b600082815260208190526040812061043790836105e6565b600081565b60008181526020819052604081206102d0906105fb565b600082815260208190526040902060020154610490906102f4610504565b6103c55760405162461bcd60e51b81526004018080602001828103825260308152602001806107fd6030913960400191505060405180910390fd5b7fad312f08b8889cfe65ec2f1faae419f8b47f0153a3483ea6130918c055c8183d81565b6000610437836001600160a01b038416610606565b3390565b600082815260208190526040902061052090826104ef565b1561033e5761052d610504565b6001600160a01b0316816001600160a01b0316837f2f8788117e7eff1d82e926ec794901d17c78024a50270940304540a733656f0d60405160405180910390a45050565b60008281526020819052604090206105899082610650565b1561033e57610596610504565b6001600160a01b0316816001600160a01b0316837ff6391f5c32d9c69d2a47ea670b442974b53935d1edc7fd64eb21e047a839171b60405160405180910390a45050565b60006104378383610665565b6000610437836001600160a01b0384166106c9565b60006102d0826106e1565b600061061283836106c9565b610648575081546001818101845560008481526020808220909301849055845484825282860190935260409020919091556102d0565b5060006102d0565b6000610437836001600160a01b0384166106e5565b815460009082106106a75760405162461bcd60e51b81526004018080602001828103825260228152602001806107ac6022913960400191505060405180910390fd5b8260000182815481106106b657fe5b9060005260206000200154905092915050565b60009081526001919091016020526040902054151590565b5490565b600081815260018301602052604081205480156107a1578354600019808301919081019060009087908390811061071857fe5b906000526020600020015490508087600001848154811061073557fe5b60009182526020808320909101929092558281526001898101909252604090209084019055865487908061076557fe5b600190038181906000526020600020016000905590558660010160008781526020019081526020016000206000905560019450505050506102d0565b60009150506102d056fe456e756d657261626c655365743a20696e646578206f7574206f6620626f756e6473416363657373436f6e74726f6c3a2073656e646572206d75737420626520616e2061646d696e20746f206772616e74416363657373436f6e74726f6c3a2073656e646572206d75737420626520616e2061646d696e20746f207265766f6b65416363657373436f6e74726f6c3a2063616e206f6e6c792072656e6f756e636520726f6c657320666f722073656c66a26469706673582212205a425f2a850b16fc4b502c7f3afa15a283bec66ca76aa9925df1092b08a3026f64736f6c634300060c0033",
  "devdoc": {
    "author": "Hashtag Protocol",
    "kind": "dev",
    "methods": {
      "getRoleAdmin(bytes32)": {
        "details": "Returns the admin role that controls `role`. See {grantRole} and {revokeRole}. To change a role's admin, use {_setRoleAdmin}."
      },
      "getRoleMember(bytes32,uint256)": {
        "details": "Returns one of the accounts that have `role`. `index` must be a value between 0 and {getRoleMemberCount}, non-inclusive. Role bearers are not sorted in any particular way, and their ordering may change at any point. WARNING: When using {getRoleMember} and {getRoleMemberCount}, make sure you perform all queries on the same block. See the following https://forum.openzeppelin.com/t/iterating-over-elements-on-enumerableset-in-openzeppelin-contracts/2296[forum post] for more information."
      },
      "getRoleMemberCount(bytes32)": {
        "details": "Returns the number of accounts that have `role`. Can be used together with {getRoleMember} to enumerate all bearers of a role."
      },
      "grantRole(bytes32,address)": {
        "details": "Grants `role` to `account`. If `account` had not been already granted `role`, emits a {RoleGranted} event. Requirements: - the caller must have ``role``'s admin role."
      },
      "hasRole(bytes32,address)": {
        "details": "Returns `true` if `account` has been granted `role`."
      },
      "isAdmin(address)": {
        "params": {
          "_addr": "Address being checked"
        },
        "returns": {
          "_0": "bool True if the address has the role, false if not"
        }
      },
      "isPublisher(address)": {
        "params": {
          "_addr": "Address being checked"
        },
        "returns": {
          "_0": "bool True if the address has the role, false if not"
        }
      },
      "isSmartContract(address)": {
        "params": {
          "_addr": "Address being checked"
        },
        "returns": {
          "_0": "bool True if the address has the role, false if not"
        }
      },
      "renounceRole(bytes32,address)": {
        "details": "Revokes `role` from the calling account. Roles are often managed via {grantRole} and {revokeRole}: this function's purpose is to provide a mechanism for accounts to lose their privileges if they are compromised (such as when a trusted device is misplaced). If the calling account had been granted `role`, emits a {RoleRevoked} event. Requirements: - the caller must be `account`."
      },
      "revokeRole(bytes32,address)": {
        "details": "Revokes `role` from `account`. If `account` had been granted `role`, emits a {RoleRevoked} event. Requirements: - the caller must have ``role``'s admin role."
      }
    },
    "title": "Hashtag Protocol Access Controls contract",
    "version": 1
  },
  "userdoc": {
    "kind": "user",
    "methods": {
      "isAdmin(address)": {
        "notice": "Checks whether an address has an admin role"
      },
      "isPublisher(address)": {
        "notice": "Checks whether an address has a publisher role"
      },
      "isSmartContract(address)": {
        "notice": "Checks whether an address has a smart contract role"
      }
    },
    "notice": "Maintains a mapping of ethereum addresses and roles they have within the protocol",
    "version": 1
  },
  "storageLayout": {
    "storage": [
      {
        "astId": 25,
        "contract": "contracts/HashtagAccessControls.sol:HashtagAccessControls",
        "label": "_roles",
        "offset": 0,
        "slot": "0",
        "type": "t_mapping(t_bytes32,t_struct(RoleData)21_storage)"
      }
    ],
    "types": {
      "t_array(t_bytes32)dyn_storage": {
        "base": "t_bytes32",
        "encoding": "dynamic_array",
        "label": "bytes32[]",
        "numberOfBytes": "32"
      },
      "t_bytes32": {
        "encoding": "inplace",
        "label": "bytes32",
        "numberOfBytes": "32"
      },
      "t_mapping(t_bytes32,t_struct(RoleData)21_storage)": {
        "encoding": "mapping",
        "key": "t_bytes32",
        "label": "mapping(bytes32 => struct AccessControl.RoleData)",
        "numberOfBytes": "32",
        "value": "t_struct(RoleData)21_storage"
      },
      "t_mapping(t_bytes32,t_uint256)": {
        "encoding": "mapping",
        "key": "t_bytes32",
        "label": "mapping(bytes32 => uint256)",
        "numberOfBytes": "32",
        "value": "t_uint256"
      },
      "t_struct(AddressSet)3030_storage": {
        "encoding": "inplace",
        "label": "struct EnumerableSet.AddressSet",
        "members": [
          {
            "astId": 3029,
            "contract": "contracts/HashtagAccessControls.sol:HashtagAccessControls",
            "label": "_inner",
            "offset": 0,
            "slot": "0",
            "type": "t_struct(Set)2765_storage"
          }
        ],
        "numberOfBytes": "64"
      },
      "t_struct(RoleData)21_storage": {
        "encoding": "inplace",
        "label": "struct AccessControl.RoleData",
        "members": [
          {
            "astId": 18,
            "contract": "contracts/HashtagAccessControls.sol:HashtagAccessControls",
            "label": "members",
            "offset": 0,
            "slot": "0",
            "type": "t_struct(AddressSet)3030_storage"
          },
          {
            "astId": 20,
            "contract": "contracts/HashtagAccessControls.sol:HashtagAccessControls",
            "label": "adminRole",
            "offset": 0,
            "slot": "2",
            "type": "t_bytes32"
          }
        ],
        "numberOfBytes": "96"
      },
      "t_struct(Set)2765_storage": {
        "encoding": "inplace",
        "label": "struct EnumerableSet.Set",
        "members": [
          {
            "astId": 2760,
            "contract": "contracts/HashtagAccessControls.sol:HashtagAccessControls",
            "label": "_values",
            "offset": 0,
            "slot": "0",
            "type": "t_array(t_bytes32)dyn_storage"
          },
          {
            "astId": 2764,
            "contract": "contracts/HashtagAccessControls.sol:HashtagAccessControls",
            "label": "_indexes",
            "offset": 0,
            "slot": "1",
            "type": "t_mapping(t_bytes32,t_uint256)"
          }
        ],
        "numberOfBytes": "64"
      },
      "t_uint256": {
        "encoding": "inplace",
        "label": "uint256",
        "numberOfBytes": "32"
      }
    }
  }
}