{
  "address": "0xDc64a140Aa3E981100a9becA4E685f962f0cF6C9",
  "abi": [
    {
      "inputs": [
        {
          "internalType": "contract HashtagAccessControls",
          "name": "_accessControls",
          "type": "address"
        },
        {
          "internalType": "contract HashtagProtocol",
          "name": "_hashtagProtocol",
          "type": "address"
        }
      ],
      "stateMutability": "nonpayable",
      "type": "constructor"
    },
    {
      "anonymous": false,
      "inputs": [
        {
          "indexed": true,
          "internalType": "address",
          "name": "who",
          "type": "address"
        },
        {
          "indexed": false,
          "internalType": "uint256",
          "name": "amount",
          "type": "uint256"
        }
      ],
      "name": "DrawDown",
      "type": "event"
    },
    {
      "anonymous": false,
      "inputs": [
        {
          "indexed": true,
          "internalType": "address",
          "name": "tagger",
          "type": "address"
        },
        {
          "indexed": true,
          "internalType": "address",
          "name": "nftContract",
          "type": "address"
        },
        {
          "indexed": true,
          "internalType": "address",
          "name": "publisher",
          "type": "address"
        },
        {
          "indexed": false,
          "internalType": "uint256",
          "name": "hashtagId",
          "type": "uint256"
        },
        {
          "indexed": false,
          "internalType": "uint256",
          "name": "nftId",
          "type": "uint256"
        },
        {
          "indexed": false,
          "internalType": "uint256",
          "name": "tagId",
          "type": "uint256"
        },
        {
          "indexed": false,
          "internalType": "uint256",
          "name": "tagFee",
          "type": "uint256"
        }
      ],
      "name": "HashtagRegistered",
      "type": "event"
    },
    {
      "inputs": [],
      "name": "accessControls",
      "outputs": [
        {
          "internalType": "contract HashtagAccessControls",
          "name": "",
          "type": "address"
        }
      ],
      "stateMutability": "view",
      "type": "function"
    },
    {
      "inputs": [
        {
          "internalType": "address",
          "name": "",
          "type": "address"
        }
      ],
      "name": "accrued",
      "outputs": [
        {
          "internalType": "uint256",
          "name": "",
          "type": "uint256"
        }
      ],
      "stateMutability": "view",
      "type": "function"
    },
    {
      "inputs": [
        {
          "internalType": "address payable",
          "name": "_account",
          "type": "address"
        }
      ],
      "name": "drawDown",
      "outputs": [],
      "stateMutability": "nonpayable",
      "type": "function"
    },
    {
      "inputs": [
        {
          "internalType": "uint256",
          "name": "_tagId",
          "type": "uint256"
        }
      ],
      "name": "getTagInfo",
      "outputs": [
        {
          "internalType": "uint256",
          "name": "_hashtagId",
          "type": "uint256"
        },
        {
          "internalType": "address",
          "name": "_nftContract",
          "type": "address"
        },
        {
          "internalType": "uint256",
          "name": "_nftId",
          "type": "uint256"
        },
        {
          "internalType": "address",
          "name": "_tagger",
          "type": "address"
        },
        {
          "internalType": "uint256",
          "name": "_tagstamp",
          "type": "uint256"
        },
        {
          "internalType": "address",
          "name": "_publisher",
          "type": "address"
        }
      ],
      "stateMutability": "view",
      "type": "function"
    },
    {
      "inputs": [],
      "name": "hashtagProtocol",
      "outputs": [
        {
          "internalType": "contract HashtagProtocol",
          "name": "",
          "type": "address"
        }
      ],
      "stateMutability": "view",
      "type": "function"
    },
    {
      "inputs": [
        {
          "internalType": "string",
          "name": "_hashtag",
          "type": "string"
        },
        {
          "internalType": "address",
          "name": "_nftContract",
          "type": "address"
        },
        {
          "internalType": "uint256",
          "name": "_nftId",
          "type": "uint256"
        },
        {
          "internalType": "address payable",
          "name": "_publisher",
          "type": "address"
        },
        {
          "internalType": "address",
          "name": "_tagger",
          "type": "address"
        }
      ],
      "name": "mintAndTag",
      "outputs": [],
      "stateMutability": "payable",
      "type": "function"
    },
    {
      "inputs": [],
      "name": "modulo",
      "outputs": [
        {
          "internalType": "uint256",
          "name": "",
          "type": "uint256"
        }
      ],
      "stateMutability": "view",
      "type": "function"
    },
    {
      "inputs": [
        {
          "internalType": "address",
          "name": "",
          "type": "address"
        }
      ],
      "name": "paid",
      "outputs": [
        {
          "internalType": "uint256",
          "name": "",
          "type": "uint256"
        }
      ],
      "stateMutability": "view",
      "type": "function"
    },
    {
      "inputs": [],
      "name": "platformPercentage",
      "outputs": [
        {
          "internalType": "uint256",
          "name": "",
          "type": "uint256"
        }
      ],
      "stateMutability": "view",
      "type": "function"
    },
    {
      "inputs": [],
      "name": "publisherPercentage",
      "outputs": [
        {
          "internalType": "uint256",
          "name": "",
          "type": "uint256"
        }
      ],
      "stateMutability": "view",
      "type": "function"
    },
    {
      "inputs": [],
      "name": "remainingPercentage",
      "outputs": [
        {
          "internalType": "uint256",
          "name": "",
          "type": "uint256"
        }
      ],
      "stateMutability": "view",
      "type": "function"
    },
    {
      "inputs": [
        {
          "internalType": "uint256",
          "name": "_fee",
          "type": "uint256"
        }
      ],
      "name": "setTagFee",
      "outputs": [],
      "stateMutability": "nonpayable",
      "type": "function"
    },
    {
      "inputs": [
        {
          "internalType": "uint256",
          "name": "_hashtagId",
          "type": "uint256"
        },
        {
          "internalType": "address",
          "name": "_nftContract",
          "type": "address"
        },
        {
          "internalType": "uint256",
          "name": "_nftId",
          "type": "uint256"
        },
        {
          "internalType": "address",
          "name": "_publisher",
          "type": "address"
        },
        {
          "internalType": "address",
          "name": "_tagger",
          "type": "address"
        }
      ],
      "name": "tag",
      "outputs": [],
      "stateMutability": "payable",
      "type": "function"
    },
    {
      "inputs": [],
      "name": "tagFee",
      "outputs": [
        {
          "internalType": "uint256",
          "name": "",
          "type": "uint256"
        }
      ],
      "stateMutability": "view",
      "type": "function"
    },
    {
      "inputs": [
        {
          "internalType": "uint256",
          "name": "",
          "type": "uint256"
        }
      ],
      "name": "tagIdToTag",
      "outputs": [
        {
          "internalType": "uint256",
          "name": "hashtagId",
          "type": "uint256"
        },
        {
          "internalType": "address",
          "name": "nftContract",
          "type": "address"
        },
        {
          "internalType": "uint256",
          "name": "nftId",
          "type": "uint256"
        },
        {
          "internalType": "address",
          "name": "tagger",
          "type": "address"
        },
        {
          "internalType": "uint256",
          "name": "tagstamp",
          "type": "uint256"
        },
        {
          "internalType": "address",
          "name": "publisher",
          "type": "address"
        }
      ],
      "stateMutability": "view",
      "type": "function"
    },
    {
      "inputs": [
        {
          "internalType": "address",
          "name": "_account",
          "type": "address"
        }
      ],
      "name": "totalDue",
      "outputs": [
        {
          "internalType": "uint256",
          "name": "_due",
          "type": "uint256"
        }
      ],
      "stateMutability": "view",
      "type": "function"
    },
    {
      "inputs": [],
      "name": "totalTags",
      "outputs": [
        {
          "internalType": "uint256",
          "name": "",
          "type": "uint256"
        }
      ],
      "stateMutability": "view",
      "type": "function"
    },
    {
      "inputs": [
        {
          "internalType": "contract HashtagAccessControls",
          "name": "_accessControls",
          "type": "address"
        }
      ],
      "name": "updateAccessControls",
      "outputs": [],
      "stateMutability": "nonpayable",
      "type": "function"
    },
    {
      "inputs": [
        {
          "internalType": "uint256",
          "name": "_platformPercentage",
          "type": "uint256"
        },
        {
          "internalType": "uint256",
          "name": "_publisherPercentage",
          "type": "uint256"
        }
      ],
      "name": "updatePercentages",
      "outputs": [],
      "stateMutability": "nonpayable",
      "type": "function"
    }
  ],
  "transactionHash": "0x0adec667fb3c65f55ca374c259d2f0b9835a4d000d4f73d42fd4aeafa7c134dd",
  "args": [
    "0x5FbDB2315678afecb367f032d93F642f64180aa3",
    "0xCf7Ed3AccA5a467e9e704C703E8D87F634fB0Fc9"
  ],
  "solcInputHash": "0f7b66c6d05ca15b418605424a9ebae7",
  "bytecode": "0x60806040526014600355601e6004556032600555600060085566038d7ea4c6800060095534801561002f57600080fd5b506040516116c53803806116c58339818101604052604081101561005257600080fd5b5080516020909101516001600081905580546001600160a01b039384166001600160a01b031991821617909155600280549390921692169190911790556116278061009e6000396000f3fe6080604052600436106101135760003560e01c8063748365ef116100a0578063b148440f11610064578063b148440f1461035d578063c206200514610390578063c20d2295146103c3578063cf325022146103f3578063d5cb95ea1461048257610113565b8063748365ef146102945780637e2e4c52146102a95780639216afb9146102be578063a1b3c18414610300578063a340cf791461032a57610113565b806329745262116100e757806329745262146101ef578063337ccf9d14610204578063648afdee146102195780636ef3da941461024a578063716a5b491461027f57610113565b8062e9236f146101185780630ad2f0c31461013f57806311167ae0146101725780631f741897146101da575b600080fd5b34801561012457600080fd5b5061012d6104ac565b60408051918252519081900360200190f35b34801561014b57600080fd5b5061012d6004803603602081101561016257600080fd5b50356001600160a01b03166104b2565b34801561017e57600080fd5b5061019c6004803603602081101561019557600080fd5b50356104e5565b604080519687526001600160a01b039586166020880152868101949094529184166060860152608085015290911660a0830152519081900360c00190f35b3480156101e657600080fd5b5061012d610529565b3480156101fb57600080fd5b5061012d61052f565b34801561021057600080fd5b5061012d610534565b34801561022557600080fd5b5061022e61053a565b604080516001600160a01b039092168252519081900360200190f35b34801561025657600080fd5b5061027d6004803603602081101561026d57600080fd5b50356001600160a01b0316610549565b005b34801561028b57600080fd5b5061012d61067a565b3480156102a057600080fd5b5061022e610680565b3480156102b557600080fd5b5061012d61068f565b61027d600480360360a08110156102d457600080fd5b508035906001600160a01b03602082013581169160408101359160608201358116916080013516610695565b34801561030c57600080fd5b5061027d6004803603602081101561032357600080fd5b50356108c9565b34801561033657600080fd5b5061012d6004803603602081101561034d57600080fd5b50356001600160a01b0316610998565b34801561036957600080fd5b5061012d6004803603602081101561038057600080fd5b50356001600160a01b03166109aa565b34801561039c57600080fd5b5061027d600480360360208110156103b357600080fd5b50356001600160a01b03166109bc565b3480156103cf57600080fd5b5061027d600480360360408110156103e657600080fd5b5080359060200135610b10565b61027d600480360360a081101561040957600080fd5b81019060208101813564010000000081111561042457600080fd5b82018360208201111561043657600080fd5b8035906020019184600183028401116401000000008311171561045857600080fd5b91935091506001600160a01b03813581169160208101359160408201358116916060013516610c49565b34801561048e57600080fd5b5061019c600480360360208110156104a557600080fd5b5035610e14565b60085481565b6001600160a01b03811660009081526007602090815260408083205460069092528220546104df91610e58565b92915050565b600a6020526000908152604090208054600182015460028301546003840154600485015460059095015493946001600160a01b039384169492939182169290911686565b60035481565b606481565b60055481565b6002546001600160a01b031681565b6001546001600160a01b03166324d7806c610562610eb5565b6040518263ffffffff1660e01b815260040180826001600160a01b0316815260200191505060206040518083038186803b15801561059f57600080fd5b505afa1580156105b3573d6000803e3d6000fd5b505050506040513d60208110156105c957600080fd5b5051610613576040805162461bcd60e51b815260206004820152601460248201527321b0b63632b91036bab9ba1031329030b236b4b760611b604482015290519081900360640190fd5b6001600160a01b0381166106585760405162461bcd60e51b815260040180806020018281038252603a8152602001806114da603a913960400191505060405180910390fd5b600180546001600160a01b0319166001600160a01b0392909216919091179055565b60095481565b6001546001600160a01b031681565b60045481565b600260005414156106ed576040805162461bcd60e51b815260206004820152601f60248201527f5265656e7472616e637947756172643a207265656e7472616e742063616c6c00604482015290519081900360640190fd5b600260005560015460408051630830b35960e31b81526001600160a01b038581166004830152915191909216916341859ac8916024808301926020929190829003018186803b15801561073f57600080fd5b505afa158015610753573d6000803e3d6000fd5b505050506040513d602081101561076957600080fd5b50516107a65760405162461bcd60e51b81526004018080602001828103825260268152602001806115a56026913960400191505060405180910390fd5b6009543410156107fd576040805162461bcd60e51b815260206004820152601a60248201527f5461673a20596f75206d7573742073656e642074686520666565000000000000604482015290519081900360640190fd5b60025460408051634f558e7960e01b81526004810188905290516001600160a01b0390921691634f558e7991602480820192602092909190829003018186803b15801561084957600080fd5b505afa15801561085d573d6000803e3d6000fd5b505050506040513d602081101561087357600080fd5b50516108b05760405162461bcd60e51b815260040180806020018281038252603d815260200180611461603d913960400191505060405180910390fd5b6108bd8585858585610eb9565b50506001600055505050565b6001546001600160a01b03166324d7806c6108e2610eb5565b6040518263ffffffff1660e01b815260040180826001600160a01b0316815260200191505060206040518083038186803b15801561091f57600080fd5b505afa158015610933573d6000803e3d6000fd5b505050506040513d602081101561094957600080fd5b5051610993576040805162461bcd60e51b815260206004820152601460248201527321b0b63632b91036bab9ba1031329030b236b4b760611b604482015290519081900360640190fd5b600955565b60076020526000908152604090205481565b60066020526000908152604090205481565b60026000541415610a14576040805162461bcd60e51b815260206004820152601f60248201527f5265656e7472616e637947756172643a207265656e7472616e742063616c6c00604482015290519081900360640190fd5b600260009081556001600160a01b0382168152600760209081526040808320546006909252822054610a4591610e58565b9050600081118015610a575750478111155b15610b07576001600160a01b038216600090815260076020526040902054610a7f9082611310565b6001600160a01b038316600081815260076020526040808220939093559151909183156108fc02918491818181858888f19350505050158015610ac6573d6000803e3d6000fd5b506040805182815290516001600160a01b038416917f59901f31ae2f183042d33e59b8b37be57d21ddf6351ebf066ee2eace7229bdfa919081900360200190a25b50506001600055565b6001546001600160a01b03166324d7806c610b29610eb5565b6040518263ffffffff1660e01b815260040180826001600160a01b0316815260200191505060206040518083038186803b158015610b6657600080fd5b505afa158015610b7a573d6000803e3d6000fd5b505050506040513d6020811015610b9057600080fd5b5051610bda576040805162461bcd60e51b815260206004820152601460248201527321b0b63632b91036bab9ba1031329030b236b4b760611b604482015290519081900360640190fd5b6064610be68383611310565b1115610c235760405162461bcd60e51b815260040180806020018281038252604981526020018061155c6049913960600191505060405180910390fd5b60038290556004819055610c4281610c3c606485610e58565b90610e58565b6005555050565b60015460408051630830b35960e31b81526001600160a01b038581166004830152915191909216916341859ac8916024808301926020929190829003018186803b158015610c9657600080fd5b505afa158015610caa573d6000803e3d6000fd5b505050506040513d6020811015610cc057600080fd5b5051610cfd5760405162461bcd60e51b815260040180806020018281038252602f815260200180611432602f913960400191505060405180910390fd5b600954341015610d3e5760405162461bcd60e51b81526004018080602001828103825260278152602001806115cb6027913960400191505060405180910390fd5b600254604051633f36ca2f60e11b81526001600160a01b0384811660248301528381166044830152606060048301908152606483018990526000939190911691637e6d945e918a918a9188918891908190608401868680828437600081840152601f19601f82011690508083019250505095505050505050602060405180830381600087803b158015610dd057600080fd5b505af1158015610de4573d6000803e3d6000fd5b505050506040513d6020811015610dfa57600080fd5b50519050610e0b8186868686610eb9565b50505050505050565b6000908152600a602052604090208054600182015460028301546003840154600485015460059095015493956001600160a01b039384169592949184169390911690565b600082821115610eaf576040805162461bcd60e51b815260206004820152601e60248201527f536166654d6174683a207375627472616374696f6e206f766572666c6f770000604482015290519081900360640190fd5b50900390565b3390565b6002546001600160a01b0385811691161415610f065760405162461bcd60e51b815260040180806020018281038252603c81526020018061149e603c913960400191505060405180910390fd5b6001600160a01b038416610f4b5760405162461bcd60e51b81526004018080602001828103825260278152602001806115146027913960400191505060405180910390fd5b600854610f59906001611310565b60088190556040805160c0810182528781526001600160a01b0380881660208084019182528385018981528784166060860190815242608087019081528a861660a0880190815260008a8152600a9095528885209751885594516001880180549188166001600160a01b03199283161790559251600280890191909155915160038801805491881691851691909117905551600480880191909155935160059096018054968616969092169590951790559254845163878327ab60e01b81529182018b9052845193948594919093169263878327ab9260248082019391829003018186803b15801561104a57600080fd5b505afa15801561105e573d6000803e3d6000fd5b505050506040513d604081101561107457600080fd5b50805160209091015190925090506001600160a01b03808216908316141561120d576110d86110b960646110b36003543461137190919063ffffffff16565b906113ca565b6001600160a01b03841660009081526006602052604090205490611310565b6001600160a01b0383166000908152600660205260409020556004546111299061110a906064906110b3903490611371565b6001600160a01b03871660009081526006602052604090205490611310565b6001600160a01b03808716600090815260066020908152604080832094909455600254845163a30b4db960e01b8152600481018e90529451929493169263a30b4db99260248083019392829003018186803b15801561118757600080fd5b505afa15801561119b573d6000803e3d6000fd5b505050506040513d60208110156111b157600080fd5b50516005549091506111ee906111cf906064906110b3903490611371565b6001600160a01b03831660009081526006602052604090205490611310565b6001600160a01b039091166000908152600660205260409020556112a8565b61122a6110b960646110b36003543461137190919063ffffffff16565b6001600160a01b03831660009081526006602052604090205560045461125c9061110a906064906110b3903490611371565b6001600160a01b03861660009081526006602052604090205560055461128e906111cf906064906110b3903490611371565b6001600160a01b0382166000908152600660205260409020555b600954604080518a8152602081018990528082018690526060810192909252516001600160a01b03808816928a821692918816917f4d94baf148184b8e7e9d47f43100e3258b564a3f25796ace47454bdb1d1444859181900360800190a45050505050505050565b60008282018381101561136a576040805162461bcd60e51b815260206004820152601b60248201527f536166654d6174683a206164646974696f6e206f766572666c6f770000000000604482015290519081900360640190fd5b9392505050565b600082611380575060006104df565b8282028284828161138d57fe5b041461136a5760405162461bcd60e51b815260040180806020018281038252602181526020018061153b6021913960400191505060405180910390fd5b6000808211611420576040805162461bcd60e51b815260206004820152601a60248201527f536166654d6174683a206469766973696f6e206279207a65726f000000000000604482015290519081900360640190fd5b81838161142957fe5b04939250505056fe4d696e7420616e64207461673a20546865207075626c6973686572206d7573742062652077686974656c69737465645461673a20546865206861736874616720494420737570706c69656420697320696e76616c6964202d206e6f6e2d6578697374656e7420746f6b656e215461673a20496e76616c696420746167202d20796f752061726520617474656d7074696e6720746f2074616720616e6f7468657220686173687461674552433732314861736874616752656769737472792e757064617465416363657373436f6e74726f6c733a2043616e6e6f74206265207a65726f66756e6374696f6e2063616c6c20746f2061206e6f6e2d636f6e74726163742061646472657373536166654d6174683a206d756c7469706c69636174696f6e206f766572666c6f774552433732314861736874616752656769737472792e75706461746550657263656e74616765733a2070657263656e7461676573206d757374206e6f74206265206f766572203130305461673a20546865207075626c6973686572206d7573742062652077686974656c69737465644d696e7420616e64207461673a20596f75206d7573742073656e64207468652074616720666565a26469706673582212208d10c4b0b0c5ceb4e4b200042a086cebae73637a298b732441cd9c087434f1cd64736f6c634300060c0033",
  "devdoc": {
    "author": "Hashtag Protocol",
    "kind": "dev",
    "methods": {
      "drawDown(address)": {
        "details": "Can be called by the account owner or on behalf of someoneDoes nothing when there is nothing due to the account",
        "params": {
          "_account": "Target address that has had accrued ETH and which will receive the ETH"
        }
      },
      "getTagInfo(uint256)": {
        "params": {
          "_tagId": "ID of the tagging event of interest"
        },
        "returns": {
          "_hashtagId": "hashtag ID",
          "_nftContract": "NFT contract address",
          "_nftId": "NFT ID",
          "_publisher": "Publisher through which the tag took place",
          "_tagger": "Address that tagged the NFT asset",
          "_tagstamp": "When the tag took place"
        }
      },
      "mintAndTag(string,address,uint256,address,address)": {
        "details": "Only a whitelisted publisher can execute this with the required fee unless the caller / sender has admin privileges.",
        "params": {
          "_hashtag": "string value of the hashtag to be minted",
          "_nftContract": "address of nft contract",
          "_nftId": "ID of the nft to link from the above nft contract",
          "_publisher": "the publisher attributed to the tagging",
          "_tagger": "the ethereum account that made the original tagging request"
        }
      },
      "setTagFee(uint256)": {
        "params": {
          "_fee": "Value of the fee in WEI"
        }
      },
      "tag(uint256,address,uint256,address,address)": {
        "details": "Only a whitelisted publisher can execute this with the required fee unless the caller / sender has admin privileges.",
        "params": {
          "_hashtagId": "ID of the hashtag being linked",
          "_nftContract": "address of nft contract",
          "_nftId": "ID of the nft to link from the above nft contract",
          "_tagger": "the ethereum account that made the original tagging request"
        }
      },
      "totalDue(address)": {
        "params": {
          "_account": "Address of the account being queried"
        },
        "returns": {
          "_due": "Amount of WEI in ETH due to account"
        }
      },
      "updateAccessControls(address)": {
        "params": {
          "_accessControls": "Address of the access controls contract"
        }
      },
      "updatePercentages(uint256,uint256)": {
        "params": {
          "_platformPercentage": "percentage for platform",
          "_publisherPercentage": "percentage for publisher"
        }
      }
    },
    "title": "ERC721HashtagRegistry",
    "version": 1
  },
  "userdoc": {
    "kind": "user",
    "methods": {
      "drawDown(address)": {
        "notice": "Enables anyone to send ETH accrued by an account"
      },
      "getTagInfo(uint256)": {
        "notice": "Retrieves information about a tag event"
      },
      "mintAndTag(string,address,uint256,address,address)": {
        "notice": "Combines the action of creating a new hashtag and then tagging an NFT asset with this new tag."
      },
      "setTagFee(uint256)": {
        "notice": "Sets the fee required to tag an NFT asset"
      },
      "tag(uint256,address,uint256,address,address)": {
        "notice": "Tags an ERC721 NFT asset by storing a reference between the asset and a hashtag"
      },
      "totalDue(address)": {
        "notice": "Used to check how much ETH has been accrued by an address factoring in amount paid out"
      },
      "updateAccessControls(address)": {
        "notice": "Admin functionality for updating the access controls"
      },
      "updatePercentages(uint256,uint256)": {
        "notice": "Admin functionality for updating the percentages"
      }
    },
    "notice": "Contract that allows any ERC721 asset to be tagged by a hashtag within the Hashtag protocol",
    "version": 1
  },
  "storageLayout": {
    "storage": [
      {
        "astId": 3257,
        "contract": "contracts/ERC721HashtagRegistry.sol:ERC721HashtagRegistry",
        "label": "_status",
        "offset": 0,
        "slot": "0",
        "type": "t_uint256"
      },
      {
        "astId": 3390,
        "contract": "contracts/ERC721HashtagRegistry.sol:ERC721HashtagRegistry",
        "label": "accessControls",
        "offset": 0,
        "slot": "1",
        "type": "t_contract(HashtagAccessControls)4166"
      },
      {
        "astId": 3392,
        "contract": "contracts/ERC721HashtagRegistry.sol:ERC721HashtagRegistry",
        "label": "hashtagProtocol",
        "offset": 0,
        "slot": "2",
        "type": "t_contract(HashtagProtocol)5459"
      },
      {
        "astId": 3398,
        "contract": "contracts/ERC721HashtagRegistry.sol:ERC721HashtagRegistry",
        "label": "platformPercentage",
        "offset": 0,
        "slot": "3",
        "type": "t_uint256"
      },
      {
        "astId": 3401,
        "contract": "contracts/ERC721HashtagRegistry.sol:ERC721HashtagRegistry",
        "label": "publisherPercentage",
        "offset": 0,
        "slot": "4",
        "type": "t_uint256"
      },
      {
        "astId": 3404,
        "contract": "contracts/ERC721HashtagRegistry.sol:ERC721HashtagRegistry",
        "label": "remainingPercentage",
        "offset": 0,
        "slot": "5",
        "type": "t_uint256"
      },
      {
        "astId": 3408,
        "contract": "contracts/ERC721HashtagRegistry.sol:ERC721HashtagRegistry",
        "label": "accrued",
        "offset": 0,
        "slot": "6",
        "type": "t_mapping(t_address,t_uint256)"
      },
      {
        "astId": 3412,
        "contract": "contracts/ERC721HashtagRegistry.sol:ERC721HashtagRegistry",
        "label": "paid",
        "offset": 0,
        "slot": "7",
        "type": "t_mapping(t_address,t_uint256)"
      },
      {
        "astId": 3415,
        "contract": "contracts/ERC721HashtagRegistry.sol:ERC721HashtagRegistry",
        "label": "totalTags",
        "offset": 0,
        "slot": "8",
        "type": "t_uint256"
      },
      {
        "astId": 3418,
        "contract": "contracts/ERC721HashtagRegistry.sol:ERC721HashtagRegistry",
        "label": "tagFee",
        "offset": 0,
        "slot": "9",
        "type": "t_uint256"
      },
      {
        "astId": 3457,
        "contract": "contracts/ERC721HashtagRegistry.sol:ERC721HashtagRegistry",
        "label": "tagIdToTag",
        "offset": 0,
        "slot": "10",
        "type": "t_mapping(t_uint256,t_struct(Tag)3453_storage)"
      }
    ],
    "types": {
      "t_address": {
        "encoding": "inplace",
        "label": "address",
        "numberOfBytes": "20"
      },
      "t_contract(HashtagAccessControls)4166": {
        "encoding": "inplace",
        "label": "contract HashtagAccessControls",
        "numberOfBytes": "20"
      },
      "t_contract(HashtagProtocol)5459": {
        "encoding": "inplace",
        "label": "contract HashtagProtocol",
        "numberOfBytes": "20"
      },
      "t_mapping(t_address,t_uint256)": {
        "encoding": "mapping",
        "key": "t_address",
        "label": "mapping(address => uint256)",
        "numberOfBytes": "32",
        "value": "t_uint256"
      },
      "t_mapping(t_uint256,t_struct(Tag)3453_storage)": {
        "encoding": "mapping",
        "key": "t_uint256",
        "label": "mapping(uint256 => struct ERC721HashtagRegistry.Tag)",
        "numberOfBytes": "32",
        "value": "t_struct(Tag)3453_storage"
      },
      "t_struct(Tag)3453_storage": {
        "encoding": "inplace",
        "label": "struct ERC721HashtagRegistry.Tag",
        "members": [
          {
            "astId": 3442,
            "contract": "contracts/ERC721HashtagRegistry.sol:ERC721HashtagRegistry",
            "label": "hashtagId",
            "offset": 0,
            "slot": "0",
            "type": "t_uint256"
          },
          {
            "astId": 3444,
            "contract": "contracts/ERC721HashtagRegistry.sol:ERC721HashtagRegistry",
            "label": "nftContract",
            "offset": 0,
            "slot": "1",
            "type": "t_address"
          },
          {
            "astId": 3446,
            "contract": "contracts/ERC721HashtagRegistry.sol:ERC721HashtagRegistry",
            "label": "nftId",
            "offset": 0,
            "slot": "2",
            "type": "t_uint256"
          },
          {
            "astId": 3448,
            "contract": "contracts/ERC721HashtagRegistry.sol:ERC721HashtagRegistry",
            "label": "tagger",
            "offset": 0,
            "slot": "3",
            "type": "t_address"
          },
          {
            "astId": 3450,
            "contract": "contracts/ERC721HashtagRegistry.sol:ERC721HashtagRegistry",
            "label": "tagstamp",
            "offset": 0,
            "slot": "4",
            "type": "t_uint256"
          },
          {
            "astId": 3452,
            "contract": "contracts/ERC721HashtagRegistry.sol:ERC721HashtagRegistry",
            "label": "publisher",
            "offset": 0,
            "slot": "5",
            "type": "t_address"
          }
        ],
        "numberOfBytes": "192"
      },
      "t_uint256": {
        "encoding": "inplace",
        "label": "uint256",
        "numberOfBytes": "32"
      }
    }
  }
}